:020000040800F2
:10000000A8060020750100087D0100087F01000896
:10001000810100088301000885010008000000003C
:100020000000000000000000000000008701000840
:1000300089010008000000008B0100088D01000804
:100040008F0100088F0100088F0100088F01000850
:100050008F0100088F0100088F0100088F01000840
:100060008F0100088F0100088F0100088F01000830
:100070008F0100088F0100088F0100088F01000820
:100080008F0100088F0100088F0100088F01000810
:100090008F0100088F0100088F0100088F01000800
:1000A0008F0100088F0100088F0100082D0700084C
:1000B0008F0100088F0100088F0100088F010008E0
:1000C0008F0100088F0100088F0100088F010008D0
:1000D0008F0100088F0100088F0100088F010008C0
:1000E0008F0100088F0100088F01000800F002F85E
:1000F00000F031F80AA090E8000C82448344AAF191
:100100000107DA4501D100F026F8AFF2090EBAE88E
:100110000F0013F0010F18BFFB1A43F0010318473B
:10012000240D0000340D00000023002400250026CB
:10013000103A28BF78C1FBD8520728BF30C148BF4A
:100140000B607047642900F07D80002070471FB568
:100150001FBD10B510BD00F02AF91146FFF7F7FFDB
:1001600000F0DEFD00F048F903B4FFF7F2FF03BC36
:1001700000F050F90948804709480047FEE7FEE7CC
:10018000FEE7FEE7FEE7FEE7FEE7FEE7FEE7FEE747
:1001900004480549054A064B704700001D06000843
:1001A000ED000008A8000020A8060020A8020020FA
:1001B000A80200200FB41CB5074B06AA7B44694671
:1001C0000090059800F0DBF80020694600F0EAF89E
:1001D0001CBC5DF814FB0000E50100002DE9F041B6
:1001E0000E460446002020622046E168884730B36E
:1001F000252805D0D4E901219047206A401CF2E768
:10020000E168204600278847050018D0A5F1410085
:10021000192802D820354FF4006732462946204677
:100220002760FFF78FFF40B1012804D0F61D26F0AC
:1002300007060836D8E7361DD6E72846DAE7206AEB
:10024000BDE8F0812DE9F0410646002410687529CB
:10025000314616A510D0AFF30080002802DA4042E4
:1002600013A507E031688A0701D512A502E0490706
:1002700004D511A5012401E0AFF3008000210A227A
:1002800006F1240709E0B0FBF2FCB0FBF2F302FB3D
:100290001C00303078541846491C0028F3D12346FE
:1002A0002A463046BDE8F04100F00BB800000000DF
:1002B0002D0000002B000000200000007047704758
:1002C00070472DE9F0470D4699469246044600F1E5
:1002D00024080168880604D5E06921F01001216036
:1002E00000E00120A84201DD471B00E00027A169D2
:1002F0007A1902EB0900081AA0612078C00602D41E
:100300002046AFF30080002608E0D4E901211AF866
:1003100006009047206A401C761C20624E45F4DBA4
:100320002078C0060AD52046AFF3008006E0D4E965
:10033000012130209047206A401C2062381EA7F11E
:100340000107F4DC07E0D4E9012118F80500904723
:10035000206A401C2062281EA5F10105F3DC20461E
:10036000AFF300802078000602D50220BDE8F087B8
:100370000120FBE701694A1C02610878704700B55B
:100380008FB0CDE901310021059105497944CDE9CE
:10039000031011466846FFF721FF0FB000BD0000B3
:1003A000E5FFFFFF0A6802F8010B0A607047754617
:1003B00000F02CF8AE4605006946534620F00700D1
:1003C000854618B020B5FFF7E3FEBDE820404FF0AA
:1003D00000064FF000074FF000084FF0000BAC464E
:1003E000ACE8C009ACE8C009ACE8C009ACE8C00999
:1003F00021F007018D46704710B50446AFF3008029
:100400002046BDE81040FFF7AFBE0000004870472F
:100410000000002001491820ABBEFEE726000200C4
:10042000704700002DE9F047CA7802F00F0CD306A0
:1004300044BF8B784CEA030C09880B0625D0824612
:100440005AF8144B00F1100E00254FF001094FF03F
:100450000F08002706E000BF1E600137082F05F1D6
:10046000040511D009FA07F60E42F6D008FA05F392
:1004700024EA03030CFA05F41C43282A5346EBD064
:10048000482AEAD17346E7E70460B1F5807F38BFB8
:10049000BDE8F087436800F1100E00F11409002553
:1004A0004FF4807A4FF00F08002705E034600137E1
:1004B000082F05F1040512D00AFA07F404EA010630
:1004C000A642F4D108FA05F6B3430CFA05F6334315
:1004D000282A4E46EAD0482AE9D17646E6E7436024
:1004E000BDE8F087416170470161704710B5C17880
:1004F00000294EF20011CEF200011AD04EF60C5235
:10050000CEF200021268072323EA12220F23C2F15F
:10051000040C23FA02F24378847890F800E003FA9E
:100520000CF322401A43120101EB0E0383F800235F
:1005300000E080310078012300F01F0203FA02F28C
:10054000C0F3421041F8202010BD0000002941F204
:100550001C01C4F202010A680CBF22EA0000104329
:1005600008607047002941F21801C4F202010A68CC
:100570000CBF22EA000010430860704710B541F23A
:100580000404C4F20204226802F00C02082A41F2B8
:100590000022C0F27A021CD12368D4F800C0C3F351
:1005A000834E5FEACC330EF1020C06D440F6001203
:1005B000C0F23D020CFB02F20BE023689B0302D465
:1005C0000CFB02F205E040F60012C0F23D020CFB0B
:1005D00002F20260226840F63263C2F30312C0F6F0
:1005E00000039A5C0168D14041602268C2F3022294
:1005F0009A5C21FA02F282602268C2F3C2229A5CFB
:1006000040F62E63D140C1602268C0F60003C2F3F9
:1006100081329A5CB1FBF2F1016110BD82B041F20E
:100620000400C4F2020050F8041C002241F0010151
:1006300040F8041C0168CFF6FF021140016050F839
:10064000041C4FF6FF72CFF6F662114040F8041C0E
:1006500050F8041C21F4802140F8041C016821F4A6
:10066000FE0101604FF41F014160002101910091E2
:1006700050F8041C41F4803140F8041C50F8041C6C
:1006800001F400310091019901310191009919B9EA
:100690000199B1F5A06FF1D150F8041C890354BF42
:1006A0000021012100910099012936D142F2000177
:1006B000C4F202010A6842F010020A600A6822F0DD
:1006C00007020A600A6842F002020A6001680160DB
:1006D00001680160016841F480610160016821F4F2
:1006E0007C110160016841F4E811016050F8041CBC
:1006F00041F0807140F8041C50F8041C8901FBD5BE
:10070000016821F003010160016841F0020101600C
:10071000016801F00C010829FAD14EF60850CEF21A
:1007200000004FF00061016002B070472DE9F04316
:1007300081B042F60044C4F201042046082100F0D2
:10074000BBF8002857D040F29C08C2F2000898F885
:100750000000002844D0204600F0ACF840F2A00988
:10076000C2F20009D9F8001040F260050844C9F847
:100770000000D9F8000040F29401C2F200010860C4
:10078000086848F68901C8F68801A0FB01014809FC
:1007900040F29801C2F2000108600A68C2F2000546
:1007A00018A12846FFF706FD3227A4F5644600BFCE
:1007B0002978304600F0B0FA3046402100F04AFA7D
:1007C0000028F9D0013F05F10105F1D120460021B3
:1007D000002500F0D5F988F80050C9F800500AE06B
:1007E000012088F800002046002100F0D1F92046C1
:1007F000022100F0C5F92046092100F04DF801B0B2
:10080000BDE8F08325640D0A0000000070B588B0D3
:10081000042001210125FFF7A5FE01200121FFF79A
:10082000A1FE40F2004042F60044C2F60300C4F2CA
:1008300001040790A4F5105007A9FFF7F3FD4FF44A
:1008400000600121FFF78EFE4720049042F20F70F6
:100850000590002604A920468DF8186000F09AF94A
:100860002046012100F01CF80820CDE9010501A96E
:100870002046ADF80C6000F02BF840F21B20C0F2CF
:10088000001000906846FFF731FE20460921012242
:1008900000F06EF908B070BDC943018270470000D6
:1008A0000288002918BF012122F0010211440180B1
:1008B00070470000808C7047028A80890A4000EAF5
:1008C000010018BF0122002818BF01201040704706
:1008D000F0B50A88082A29D0042A52D0002A7BD1F0
:1008E0004B88B1F804C0B1F808E0028C40F6FF363E
:1008F00022F001020284024632F8184F058CC4F23D
:100900000006B0424FF6FC7600F38F80B0F1804FC6
:1009100000F09E8040F20047C4F20007B84200F0A9
:10092000978040F60007C4F200078EE04B88B1F8CC
:1009300004C0B1F808E0028C40F6FF3722F4807260
:100940000284024632F81C4F058C6FF44056C4F204
:100950000007B84206F5145600F38B80B0F1804FC3
:1009600000F0998040F20047C4F20007B84200F05E
:10097000928040F60007C4F20007B84200F08B8076
:100980008EE04B88B1F804C0B1F808E0028C40F664
:10099000FF3722F010020284024632F8184F058C0D
:1009A0006FF00306C4F20007B842A6F1AD0600F3EB
:1009B0008880B0F1804F00F0968040F20047C4F28A
:1009C0000007B84200F08F8040F60007C4F200072D
:1009D000B84200F088808AE04B88B1F804C0B1F8D2
:1009E00008E0028C40F6FF3622F480520284024670
:1009F00032F81C4F058CC4F20006B04246F6FF5692
:100A000000F38980B0F1804F00F0978040F20047FA
:100A1000C4F20007B84200F0908040F60007C4F22C
:100A20000007B84200F089808AE040F60047C4F22F
:100A30000007B8420CD042F60047C4F20107B842A2
:100A400006D043F20047C4F20107B84218BF083E7F
:100A500035402B4324F0F3044CEA0E1743F0010316
:100A6000274307830384C988038B23F00C03038384
:100A70007AE040F60047C4F20007B8420BD043F2D8
:100A80000047C4F20107B84205D042F60047C4F25D
:100A90000107B84204D14CF6FF761B0206F5345626
:100AA00035402B4324F0F3044CEA0E1743F48073D3
:100AB000274387830384C988838B23F00C038383B4
:100AC00052E040F60047C4F20007B8420BD043F2B0
:100AD0000047C4F20107B84205D042F60047C4F20D
:100AE0000107B84203D14FF6FC761B012D3E35407D
:100AF0002B4340F6FF452C4044EA0E3743F01003E9
:100B000047EA0C2707830384C988038B090223F46F
:100B10004063038328E040F60047C4F20007B84270
:100B20000BD043F20047C4F20107B84205D042F6A9
:100B30000047C4F20107B84202D14CF6FF761B030E
:100B400035402B4340F6FF454FEA0E372C4047EA2D
:100B50000C2743F48053274387830384C988838BFE
:100B6000090223F440638383108808431080F0BD9A
:100B7000002A82890CBF22EA01011143818170475A
:100B8000028C22F4007242EA0121018470470000C5
:100B90008184704740F6FF33B0F800C0C4F2000310
:100BA00098420FDCB0F1804F1ED040F20043C4F2F7
:100BB0000003984218D040F60003C4F200039842A4
:100BC00012D016E040F60043C4F2000398420BD066
:100BD00043F20043C4F20103984205D042F60043B9
:100BE000C4F20103984204D14B882CF0700243EA0E
:100BF000020C41F2004240F48063C4F200029342CE
:100C000004D0CA882CF4407342EA030CA0F800C058
:100C10008A888285A0F18042A2F596320B884FEA3D
:100C2000B222072A038507D8012303FA02F212F041
:100C3000E50F1CBF097A01860121818270470000FF
:100C40008289002918BF012122F4005242EA413171
:100C5000818170470088084018BF0120704700005C
:100C600070B586B00446008A0D46C98820F440500D
:100C700008432082A0894EF6F3110840A9882A89EA
:100C80006B89084310431843A081A08AA98920F4E6
:100C90004070084301AEA0823046FFF76FFC43F678
:100CA000000106F10800C4F201018C4208BF06F100
:100CB0000C0000681922B4F90C1050432A68012373
:100CC000B1F1FF3FC8BF022302FA03F1B0FBF1F01C
:100CD00048F21F51C5F2EB11A0FB01235A096FF036
:100CE000630302FB0300B4F90C300326B3F1FF3FAA
:100CF000C8BF042600FA06F000F13200A0FB010193
:100D00004FF00700C8BF0F2000EA511040EA021060
:100D1000208106B070BD00006FF35F2181807047B5
:100D200086B040F60044C4F20104FFF76FFD0920CD
:100D30000121FFF717FC40F20040C1F6030005ADAA
:100D4000059020462946FFF76DFB4FF40060ADF893
:100D5000140004208DF8170020462946FFF762FB97
:100D60004FF480200121FFF7F1FB4FF41650019062
:100D70004FF44020A4F5444601AD4FF00008039025
:100D800030462946CDF80880ADF81080FFF768FF9F
:100D900030460121FFF754FF01200121FFF7D6FB68
:100DA0004FF4E1560A2701A94FF0804001960297BF
:100DB0008DF80C80FFF7EEFE4FF080400121FFF729
:100DC0006FFD4FF0804001210122FFF7D1FE082086
:100DD0000121FFF7C7FB48F20000C1F202000590B5
:100DE00005A92046FFF71EFB20464FF40041FFF700
:100DF0007BFB01200121FFF7A9FB4FF08040294632
:100E0000CDE901678DF80C80FFF7C4FE4FF08040FC
:100E10000121FFF745FD4FF0804001210122FFF73E
:100E2000A7FE20464FF40041FFF75CFBDCE702041D
:100E30000608000000000102030401020304060783
:100E400008090000540E000800000020A806000059
:040E5000280100086D
:040000050800017579
:00000001FF
