:020000040800F2
:10000000880600208901000891010008930100087A
:100010009501000897010008990100080000000000
:100020000000000000000000000000009B0100082C
:100030009D010008000000009F010008FD1200085B
:10004000A3010008A3010008A3010008A301000800
:10005000A3010008A3010008A3010008A3010008F0
:10006000A3010008A3010008A3010008A3010008E0
:10007000A3010008A3010008A3010008A3010008D0
:10008000A3010008A3010008A3010008A3010008C0
:10009000A3010008A3010008A3010008A3010008B0
:1000A000A3010008A3010008A3010008A3010008A0
:1000B000A3010008A3010008A3010008A301000890
:1000C000A3010008A3010008A301000835060008E9
:1000D000A3010008A3010008A3010008A301000870
:1000E000A3010008A3010008A301000800F002F822
:1000F00000F03AF80AA090E8000C82448344AAF188
:100100000107DA4501D100F02FF8AFF2090EBAE885
:100110000F0013F0010F18BFFB1A43F0010318473B
:10012000E82E0000082F0000103A24BF78C878C1DC
:10013000FAD8520724BF30C830C144BF04680C60ED
:10014000704700000023002400250026103A28BF35
:1001500078C1FBD8520728BF30C148BF0B60704739
:100160001FB51FBD10B510BD00F031F81146FFF7E7
:10017000F7FF01F043FD00F04FF803B4FFF7F2FF83
:1001800003BC00F057F800000948804709480047C1
:10019000FEE7FEE7FEE7FEE7FEE7FEE7FEE7FEE737
:1001A000FEE7FEE704480549054A064B7047000094
:1001B00041140008ED000008880000208806002097
:1001C00088020020880200207047704770477546FB
:1001D00000F02CF8AE4605006946534620F00700B3
:1001E000854618B020B5FFF7DDFFBDE820404FF091
:1001F00000064FF000074FF000084FF0000BAC4630
:10020000ACE8C009ACE8C009ACE8C009ACE8C0097A
:1002100021F007018D46704710B50446AFF300800A
:100220002046BDE81040FFF7A8BF00000048704717
:100230000800002001491820ABBEFEE7260002009E
:100240007047000081B00090009840F27401C2F243
:1002500000010860FFE740F27400C2F2000000688D
:1002600008B1FFE7F7E701B07047000088B00790DA
:100270000691002005900490039002900190009058
:100280000698C07800F00F0005900698C078C00668
:10029000002806D5FFE70698817805980843059061
:1002A000FFE70698007800284BD0FFE70798006822
:1002B000019000200390FFE7039807283DD8FFE74F
:1002C000039901208840029006980088029908400E
:1002D00004900498029988422AD1FFE7039880008D
:1002E000029002990F20884000900099019888435D
:1002F00001900598029900FA01F1019808430190D4
:100300000698C078282806D1FFE703990120884085
:10031000079948610BE00698C078482806D1FFE7A6
:1003200003990120884007990861FFE7FFE7FFE78D
:10033000FFE7039801300390BEE701980799086032
:10034000FFE706980088B0F5807F50DBFFE707984D
:100350004068019000200390FFE70398072842D8E7
:10036000FFE7039800F108010120884002900698F9
:1003700000880299084004900498029988422DD17F
:10038000FFE703988000029002990F2088400090B8
:1003900000990198884301900598029900FA01F1AB
:1003A0000198084301900698C078282808D1FFE7F3
:1003B000039800F108010120884007994861FFE790
:1003C0000698C078482808D1FFE7039800F1080193
:1003D0000120884007990861FFE7FFE7FFE70398DE
:1003E00001300390B9E7019807994860FFE708B02A
:1003F0007047000082B00190ADF8021000208DF827
:1004000001000198C068BDF80210084204D0FFE75F
:1004100001208DF8010003E000208DF80100FFE7C6
:100420009DF8010002B0704782B00190ADF8021053
:10043000BDF802000199486102B0704782B0019096
:10044000ADF80210BDF802000199086102B07047D2
:1004500082B001908DF803109DF8030048B1FFE7CA
:10046000019A41F21C01C4F20201086810430860BD
:1004700008E0019A41F21C01C4F2020108689043AD
:100480000860FFE702B0704782B001908DF803105A
:100490009DF8030048B1FFE7019A41F21801C4F248
:1004A000020108681043086008E0019A41F218014F
:1004B000C4F20201086890430860FFE702B0704789
:1004C00086B005900020049003900290019041F2C4
:1004D0000400C4F20200006800F00C0004900498CC
:1004E000009040B1FFE7009804280BD0FFE7009888
:1004F00008280ED047E0059941F20020C0F27A00AA
:10050000086047E0059941F20020C0F27A000860D7
:1005100040E041F20400C4F20200016801F47011ED
:100520000391006800F4803002900399022000EBF0
:1005300091400390029848B9FFE7039840F60011F4
:10054000C0F23D014843059908601BE041F20400F8
:10055000C4F2020000688003002809D5FFE7039871
:1005600040F60011C0F23D0148430599086008E0DB
:10057000039841F20021C0F27A01484305990860CE
:10058000FFE7FFE706E0059941F20020C0F27A009C
:100590000860FFE741F20400C4F20200016801F0C4
:1005A000F0010491049909090491049A42F6F87142
:1005B000C0F600018A5C0192059B1A68DDF804C050
:1005C00022FA0CF25A60026802F4E0620492049A81
:1005D000120A0492049A8A5C0192059B5A68DDF81B
:1005E00004C022FA0CF29A60026802F4605204928B
:1005F000049AD20A0492049A895C0191059A51687E
:10060000019BD940D160006800F4404004900498F8
:10061000800B0490049942F6E470C0F60000405C40
:1006200001900599C868019AB0FBF2F0086106B024
:100630007047000080B543F20000C4F2010000F0F2
:1006400059FD40F26C01C2F20001087040F6000052
:10065000C4F201008021FFF7CDFE012810D1FFE791
:1006600040F60000C4F201008021FFF7DDFE43F2F6
:100670000000C4F20100002100F042FD00F0F8BCCF
:1006800040F26C00C2F200000078C007F0B1FFE752
:1006900040F26C00C2F2000000780006002815D578
:1006A000FFE740F28000C2F20000006870B9FFE787
:1006B00040F28001C2F200010120086040F27001A6
:1006C000C2F20001086801300860FFE740F27000E4
:1006D000C2F2000000680E280CD1FFE740F268016A
:1006E000C2F200011120086040F27001C2F2000164
:1006F00008601EE340F27000C2F2000000680528A6
:100700000ED1FFE740F26801C2F200010A20086042
:1007100040F27001C2F2000108680130086007E38E
:1007200040F26C00C2F200000078C00700283FD100
:10073000FFE740F26C00C2F200000078800700285A
:1007400036D4FFE740F26C00C2F2000000784007A8
:1007500000282DD4FFE740F26C00C2F200000078C0
:100760000007002824D4FFE740F26C00C2F200002A
:100770000078C00600281BD4FFE740F26C00C2F2EC
:10078000000000788006002812D4FFE740F26C00D9
:10079000C2F2000000784006002809D4FFE740F2CA
:1007A0006C00C2F2000000780006002848D5FFE780
:1007B00040F26C00C2F200000078C007002846D169
:1007C000FFE740F26C00C2F20000007880070028CA
:1007D0003DD4FFE740F26C00C2F200000078400711
:1007E000002834D4FFE740F26C00C2F20000007829
:1007F000000700282BD4FFE740F26C00C2F2000093
:100800000078C006002822D4FFE740F26C00C2F254
:10081000000000788006002819D4FFE740F26C0041
:10082000C2F2000000784006002810D4FFE740F232
:100830006C00C2F2000000780006002807D5FFE730
:1008400040F26801C2F20001122008606FE240F23B
:100850006C00C2F2000000780006002808D5FFE70F
:1008600040F26C00C2F200000078C00738B9FFE720
:1008700040F28001C2F2000100200860FFE740F270
:100880007000C2F2000000681128C0F28380FFE708
:10089000012038B9FFE740F26801C2F200011020E0
:1008A000086076E040F26C00C2F2000000780006BA
:1008B000002807D5FFE740F26801C2F200010F20CF
:1008C000086065E040F26C00C2F20000007880072A
:1008D000002807D5FFE740F26801C2F200011020AE
:1008E000086054E040F26C00C2F20000007840065C
:1008F000002807D5FFE740F26801C2F200010F208F
:10090000086043E040F26C00C2F20000007840074B
:10091000002807D5FFE740F26801C2F200010E206F
:10092000086032E040F26C00C2F2000000788006FD
:10093000002807D5FFE740F26801C2F200010D2050
:10094000086021E040F26C00C2F20000007800076D
:10095000002807D5FFE740F26801C2F200010E202F
:10096000086010E040F26C00C2F200000078C0069F
:10097000002807D5FFE740F26801C2F200010E200F
:100980000860FFE7FFE7FFE7FFE7FFE7FFE7FFE7B5
:10099000FFE7CBE140F27000C2F2000000680628D9
:1009A00040F08380FFE740F26C00C2F20000007864
:1009B0000006002807D5FFE740F26801C2F20001F7
:1009C0000F20086070E0012038B9FFE740F26801AD
:1009D000C2F200011020086065E040F26C00C2F233
:1009E000000000784006002807D5FFE740F26801C4
:1009F000C2F200010F20086054E040F26C00C2F225
:100A0000000000788007002807D5FFE740F2680162
:100A1000C2F200011020086043E040F26C00C2F214
:100A2000000000788006002807D5FFE740F2680143
:100A3000C2F200010D20086032E040F26C00C2F208
:100A4000000000784007002807D5FFE740F2680162
:100A5000C2F200010E20086021E040F26C00C2F2F8
:100A600000000078C006002807D5FFE740F26801C3
:100A7000C2F200010D20086010E040F26C00C2F2EA
:100A8000000000780007002807D5FFE740F2680162
:100A9000C2F200010E200860FFE7FFE7FFE7FFE773
:100AA000FFE7FFE7FFE7FFE73FE140F27000C2F238
:100AB00000000068022829D0FFE740F27000C2F26F
:100AC00000000068042821D0FFE740F27000C2F265
:100AD00000000068072819D0FFE740F27000C2F25A
:100AE00000000068082811D0FFE740F27000C2F251
:100AF00000000068092809D0FFE740F27000C2F248
:100B0000000000680A2840F08880FFE740F26C008F
:100B1000C2F200000078C00738B1FFE740F2680178
:100B2000C2F200010920086076E040F26C00C2F2D7
:100B3000000000780006002807D5FFE740F26801B2
:100B4000C2F200010820086065E040F26C00C2F2C9
:100B5000000000788007002807D5FFE740F2680111
:100B6000C2F200010920086054E040F26C00C2F2B9
:100B7000000000784006002807D5FFE740F2680132
:100B8000C2F200010820086043E040F26C00C2F2AB
:100B9000000000784007002807D5FFE740F2680111
:100BA000C2F200010C20086032E040F26C00C2F298
:100BB000000000780007002807D5FFE740F2680131
:100BC000C2F200010C20086021E040F26C00C2F289
:100BD00000000078C006002807D5FFE740F2680152
:100BE000C2F200010B20086010E040F26C00C2F27B
:100BF000000000788006002807D5FFE740F2680172
:100C0000C2F200010B200860FFE7FFE7FFE7FFE704
:100C1000FFE7FFE7FFE7FFE786E040F26C00C2F284
:100C200000000078C006002807D5FFE740F2680101
:100C3000C2F200010420086075E040F26C00C2F2CC
:100C4000000000780007002807D5FFE740F26801A0
:100C5000C2F200010520086064E040F26C00C2F2BC
:100C6000000000784007002807D5FFE740F2680140
:100C7000C2F200010520086053E040F26C00C2F2AD
:100C8000000000780006002807D5FFE740F2680161
:100C9000C2F200010620086042E040F26C00C2F29D
:100CA000000000784006002807D5FFE740F2680101
:100CB000C2F200010620086031E040F26C00C2F28E
:100CC000000000788006002807D5FFE740F26801A1
:100CD000C2F200010420086020E040F26C00C2F281
:100CE000000000788007002807D5FFE740F2680180
:100CF000C2F20001072008600FE040F26C00C2F26F
:100D000000000078C00738B1FFE740F26801C2F286
:100D1000000107200860FFE7FFE7FFE7FFE7FFE7C5
:100D2000FFE7FFE7FFE7FFE7FFE7FFE7FFE7FFE793
:100D3000FFE740F26C00C2F200000078C00798B1F3
:100D4000FFE7FFE744F20040C4F20000402100F05A
:100D500023FE08B9FFE7F5E744F20040C4F20000C3
:100D6000302100F0E9FE12E0FFE744F20040C4F257
:100D70000000402100F010FE08B9FFE7F5E744F25B
:100D80000040C4F20000312100F0D6FEFFE740F23F
:100D90006C00C2F2000000788007002813D5FFE73E
:100DA000FFE744F20040C4F20000402100F0F4FDEF
:100DB00008B9FFE7F5E744F20040C4F20000302133
:100DC00000F0BAFE12E0FFE744F20040C4F2000077
:100DD000402100F0E1FD08B9FFE7F5E744F20040EB
:100DE000C4F20000312100F0A7FEFFE740F26C00E2
:100DF000C2F2000000784007002813D5FFE7FFE7A4
:100E000044F20040C4F20000402100F0C5FD08B9E2
:100E1000FFE7F5E744F20040C4F20000302100F0A3
:100E20008BFE12E0FFE744F20040C4F200004021D4
:100E300000F0B2FD08B9FFE7F5E744F20040C4F264
:100E40000000312100F078FEFFE740F26C00C2F2B2
:100E5000000000780007002813D5FFE7FFE744F201
:100E60000040C4F20000402100F096FD08B9FFE701
:100E7000F5E744F20040C4F20000302100F05CFECF
:100E800012E0FFE744F20040C4F20000402100F00D
:100E900083FD08B9FFE7F5E744F20040C4F2000023
:100EA000312100F049FEFFE740F26C00C2F2000081
:100EB0000078C006002813D5FFE7FFE744F20040A2
:100EC000C4F20000402100F067FD08B9FFE7F5E734
:100ED00044F20040C4F20000302100F02DFE12E088
:100EE000FFE744F20040C4F20000402100F054FD4E
:100EF00008B9FFE7F5E744F20040C4F200003121F1
:100F000000F01AFEFFE740F26C00C2F20000007829
:100F10008006002813D5FFE7FFE744F20040C4F243
:100F20000000402100F038FD08B9FFE7F5E744F282
:100F30000040C4F20000302100F0FEFD12E0FFE7A7
:100F400044F20040C4F20000402100F025FD08B941
:100F5000FFE7F5E744F20040C4F20000312100F061
:100F6000EBFDFFE740F26C00C2F2000000784006A3
:100F7000002813D5FFE7FFE744F20040C4F2000069
:100F8000402100F009FD08B9FFE7F5E744F2004011
:100F9000C4F20000302100F0CFFD12E0FFE744F280
:100FA0000040C4F20000402100F0F6FC08B9FFE761
:100FB000F5E744F20040C4F20000312100F0BCFD2E
:100FC000FFE740F26C00C2F2000000780006002843
:100FD00013D5FFE7FFE744F20040C4F200004021D0
:100FE00000F0DAFC08B9FFE7F5E744F20040C4F28C
:100FF0000000302100F0A0FD12E0FFE744F20040C5
:10100000C4F20000402100F0C7FC08B9FFE7F5E793
:1010100044F20040C4F20000312100F08DFDFFE7F2
:10102000FFE744F20040C4F20000402100F0B4FCAD
:1010300008B9FFE7F5E744F20040C4F200000D21D3
:1010400000F07AFDFFE744F20040C4F200004021C6
:1010500000F0A2FC08B9FFE7F5E744F20040C4F253
:1010600000000A2100F068FD232000F071FDFFE779
:1010700080BD000082B001908DF803109DF8030040
:1010800030B1FFE70199088840F04000088005E092
:101090000199088820F040000880FFE702B07047FF
:1010A00083B002908DF807108DF806200020ADF86F
:1010B0000400ADF802009DF807000009ADF8040037
:1010C000BDF8041001208840ADF802009DF806002C
:1010D00038B1FFE7BDF80220029988881043888064
:1010E00006E0BDF802200299888890438880FFE7D7
:1010F00003B0704781B000900098808901B07047BC
:1011000082B00190ADF80210BDF80200019988810B
:1011100002B0704783B0029001910020ADF8020048
:1011200002980088ADF80200BDF8020000F44150BA
:10113000ADF80200019908884A8810438A88104354
:10114000CA8810430A8910434A8910438A89104388
:10115000C9890143BDF802000843ADF80200BDF89B
:101160000200029908800299888B20F4006088832D
:101170000198008A0299088203B0704780B500F098
:1011800001F880BD84B000200390029041F200017C
:10119000C4F20201086840F480300860FFE741F2C1
:1011A0000000C4F20200006800F4003002900398CE
:1011B00001300390FFE702990020019039B9FFE761
:1011C0000398B0F5A06018BF01200190FFE70198D7
:1011D000C0070028E3D1FFE741F20000C4F202009B
:1011E00000688003002803D5FFE70120029002E099
:1011F00000200290FFE70298012851D1FFE742F258
:101200000001C4F20201086840F01000086008689C
:1012100020F007000860086840F00200086041F212
:101220000401C4F2020100910868086008680860BF
:10123000086840F480600860086820F47C1008604A
:10124000086840F4E810086041F20001C4F20201AD
:10125000086840F080700860FFE741F20000C4F2C7
:10126000020000688001002801D4FFE7F5E741F2A1
:101270000401C4F20201086820F003000860086855
:1012800040F002000860FFE741F20400C4F20200EF
:10129000006800F00C00082801D0FFE7F4E700E048
:1012A000FFE704B07047000080B582B0009000985E
:1012B0000138B0F1807F03D3FFE70120019019E0EE
:1012C000009801384EF21401CEF2000108604FF090
:1012D000FF300F2100F070FC4EF21801CEF2000139
:1012E000002008604EF21002CEF2000207211160C9
:1012F0000190FFE7019802B080BD000040F2740049
:10130000C2F20000006840B1FFE740F27401C2F28F
:101310000001086801380860FFE7704784B00020CA
:1013200003900290019041F20400C4F202000068B0
:1013300000F00C0003900398009040B1FFE7009884
:1013400004280ED0FFE70098082814D056E040F299
:101350000001C2F2000141F20020C0F27A000860F0
:1013600056E040F20001C2F2000141F20020C0F25A
:101370007A0008604CE041F20400C4F20200016807
:1013800001F470110291006800F48030019002991C
:10139000022000EB91400290019860B9FFE70298AB
:1013A00040F60011C0F23D01484340F20001C2F294
:1013B0000001086021E041F20400C4F2020000686C
:1013C000800300280CD5FFE7029840F60011C0F218
:1013D0003D01484340F20001C2F2000108600BE009
:1013E000029841F20021C0F27A01484340F2000124
:1013F000C2F200010860FFE7FFE709E040F20001E8
:10140000C2F2000141F20020C0F27A000860FFE75A
:1014100041F20400C4F202000068C0B2010942F6C1
:10142000E870C0F60000405C0390039A40F20001AF
:10143000C2F200010868D040086004B070470000A4
:1014400080B541F20002C4F20202106840F00100CF
:10145000106041F20401C4F2020108680023CFF6D3
:10146000FF031840086010684FF6FF73CFF6F6636D
:1014700018401060106820F480201060086820F484
:10148000FE00086041F20801C4F202014FF41F009F
:101490000860FFF773FE4EF60851CEF200014FF0E0
:1014A0000060086080BD000082B001908DF80310DC
:1014B0009DF8030030B1FFE70199088840F0010072
:1014C000088005E00199088820F001000880FFE706
:1014D00002B0704782B001908DF803109DF80300B0
:1014E00040B1FFE70199B1F8440040F40040A1F891
:1014F000440007E00199B1F844006FF3DF30A1F830
:101500004400FFE702B0704784B0039002910020CE
:10151000ADF80600ADF80400ADF802000399088CA0
:1015200020F0010008840398008CADF804000398B3
:101530008088ADF802000398008BADF80600BDF876
:10154000060020F07000ADF80600BDF8060020F09F
:101550000300ADF8060002980188BDF806000843B4
:10156000ADF80600BDF8040020F00200ADF804005C
:1015700002980189BDF804000843ADF80400029800
:101580004188BDF804000843ADF80400039842F612
:101590000041C4F20101884220D0FFE7039843F2E2
:1015A0000041C4F20101884218D0FFE7039844F2D9
:1015B0000001C4F20101884210D0FFE7039844F211
:1015C0000041C4F20101884208D0FFE7039844F6C5
:1015D0000001C4F20101884235D1FFE7BDF80400E3
:1015E00020F00800ADF8040002984189BDF804001D
:1015F0000843ADF80400BDF8040020F00400ADF885
:10160000040002988188BDF804000843ADF8040086
:10161000BDF8020020F48070ADF80200BDF80200B1
:1016200020F40070ADF8020002988189BDF8020034
:101630000843ADF802000298C189BDF802000843D2
:10164000ADF80200FFE7BDF8020003998880BDF8FD
:101650000600039908830298C08803998886BDF81C
:1016600004000399088404B07047000082B0019020
:10167000ADF802100020ADF800000198008BADF825
:101680000000BDF8000020F00800ADF80000BDF833
:101690000210BDF800000843ADF80000BDF80000DE
:1016A0000199088302B0704784B003900291002032
:1016B000ADF80600ADF80400ADF802000399088CFF
:1016C00020F0100008840398008CADF80400039803
:1016D0008088ADF802000398008BADF80600BDF8D5
:1016E000060020F4E040ADF80600BDF8060020F446
:1016F0004070ADF8060002980188BDF8060040EA87
:101700000120ADF80600BDF8040020F02000ADF87F
:10171000040002980189BDF8040040EA0110ADF808
:10172000040002984188BDF8040040EA0110ADF8B9
:101730000400039842F60041C4F20101884208D037
:10174000FFE7039843F20041C4F20101884239D116
:10175000FFE7BDF8040020F08000ADF80400029817
:101760004189BDF8040040EA0110ADF80400BDF85D
:10177000040020F04000ADF8040002988188BDF814
:10178000040040EA0110ADF80400BDF8020020F4A6
:101790008060ADF80200BDF8020020F40060ADF8F2
:1017A000020002988189BDF8020040EA8100ADF88C
:1017B00002000298C189BDF8020040EA8100ADF83C
:1017C0000200FFE7BDF8020003998880BDF806001B
:1017D000039908830298C08803990887BDF804001C
:1017E0000399088404B0704782B00190ADF80210EC
:1017F0000020ADF800000198008BADF80000BDF8A6
:10180000000020F40060ADF80000BDF80210BDF843
:10181000000040EA0120ADF80000BDF80000019989
:10182000088302B07047000083B00290019100204D
:10183000ADF8020002980088ADF80200029842F666
:101840000041C4F20101884225D0FFE7029843F22B
:101850000041C4F2010188421DD0FFE70298B0F1B7
:10186000804F18D0FFE7029840F20041C4F2000117
:10187000884210D0FFE7029840F60001C4F2000150
:10188000884208D0FFE7029840F60041C4F2000108
:1018900088420ED1FFE7BDF8020020F07000ADF8DD
:1018A000020001984188BDF802000843ADF802002B
:1018B000FFE7029841F20001C4F20001884216D00D
:1018C000FFE7029841F20041C4F2000188420ED0C5
:1018D000FFE7BDF8020020F44070ADF80200019867
:1018E000C188BDF802000843ADF80200FFE7BDF86B
:1018F00002000299088001988088029988850198E1
:10190000008802990885029842F60041C4F201015C
:10191000884220D0FFE7029843F20041C4F201015F
:10192000884218D0FFE7029844F20001C4F2010196
:10193000884210D0FFE7029844F20041C4F201014E
:10194000884208D0FFE7029844F60001C4F2010182
:10195000884205D1FFE70198007A02990886FFE7DF
:1019600002990120888203B07047000082B0019084
:101970008DF803109DF8030030B1FFE701998889C5
:1019800040F40050888105E00199888920F40050D6
:101990008881FFE702B0704782B00190ADF8021075
:1019A00000208DF80100BDF80200B0F5007F01D1E4
:1019B000FFE7FFE701980088BDF802100840000427
:1019C00020B1FFE701208DF8010003E000208DF831
:1019D0000100FFE79DF8010002B0704780B58CB0B0
:1019E0000B900A91002009900890079006900590AE
:1019F0000A98808908B1FFE7FFE70B9805900B98DC
:101A0000008A099009984CF6FF71084009900A98DD
:101A1000C18809980843099009980B9908820B9886
:101A20008089099009984EF6F311084009900A99A7
:101A300088880A8910434989014309980843099015
:101A400009980B9988810B98808A099009984FF61C
:101A5000FF41084009900A98818909980843099034
:101A600009980B9988826846FEF72AFD059843F687
:101A70000001C4F20101884203D1FFE703980890F6
:101A800002E002980890FFE70B9880890004002884
:101A90000AD5FFE70898192148430A9909684900BF
:101AA000B0FBF1F0079009E00898192148430A9922
:101AB00009688900B0FBF1F00790FFE7079848F24A
:101AC0001F51C5F2EB11A0FB01016FF00F0000EAFE
:101AD00051000990079A09980009642100FB112020
:101AE00006900B9880890004002810D5FFE706991E
:101AF000322000EBC10048F21F51C5F2EB11A0FBF0
:101B00000110C0F342110998084309900FE00699AB
:101B1000322000EB011048F21F51C5F2EB11A0FB7F
:101B20000110C0F34311099808430990FFE7099891
:101B30000B9908810CB080BD82B00190ADF8021005
:101B4000BDF802006FF35F200199888002B07047F2
:101B500081B08DF803009DF90300002812D4FFE73F
:101B60009DF9031001F01F02012090404A094EF236
:101B70008011CEF2000141F82200BFF34F8FBFF376
:101B80006F8FFFE701B0704781B08DF803009DF9BA
:101B9000030000280ED4FFE79DF9031001F01F0297
:101BA000012090404A094EF20011CEF2000141F8A6
:101BB0002200FFE701B0704782B08DF80700009166
:101BC0009DF9070000280AD4FFE7009800019DF95D
:101BD00007104EF20042CEF2000288540BE000984B
:101BE00000019DF8071001F00F014EF61452CEF2DD
:101BF00000028854FFE702B07047000080B5ADF5E1
:101C0000AB6D0020AC90CDF85405FFF787FB40F298
:101C10000000C2F20000006844F6D351C1F2620134
:101C2000A0FB01108009FFF73FFB0420A1900121D8
:101C3000AF91FEF729FC2020ADF850050220A790B7
:101C40008DF852051820A6908DF8530540F6000037
:101C5000C4F20100A5900DF5AA61AA91FEF706FB5A
:101C6000A598A79AAA999023ADF850358DF85225DA
:101C70001022A8928DF85325FEF7F8FAAF994FF489
:101C80008050FEF701FCA79AAC98AF99ADF83C05DF
:101C90004FF48273ADF83E35ADF84005ADF84225FE
:101CA000ADF844154FF40071ADF846153821ADF884
:101CB0004815ADF84A0543F20000C4F201009F90B8
:101CC0000DF23C51FFF726FA9F98AF9A6021FFF77B
:101CD000E7F99F98AF99FFF7CDF9AF994FF48020BE
:101CE000FEF7B6FBAF990820AD90FEF7CDFBA698A6
:101CF000AA994FF48062ADF850258DF85305032062
:101D0000A0908DF8520540F60040C4F20100A99061
:101D1000FEF7ACFAA19AA998AA994FF40063AB9385
:101D2000ADF850358DF85325FEF7A0FAAC99AD9873
:101D30004FF41652CDF82C25ADF83015ADF832150C
:101D4000ADF83415ADF83815ADF8360544F6000099
:101D5000C4F20000A3900DF22C51A291FFF73EFEB9
:101D6000AF994FF40030FEF773FBA198AF99FEF7DF
:101D70008BFBA09ADDF884C2A598A69BAA99ADF822
:101D800050C58DF853358DF85225FEF76FFAA19A9C
:101D9000A598AA99AD9BADF850358DF85325FEF75F
:101DA00065FAA299AC9AAD984FF4E133CDF82C3591
:101DB000ADF83025ADF83225ADF83425ADF838252D
:101DC000ADF8360544F20040C4F20000A490FFF7DD
:101DD00005FEA398AF99FFF7C9FDA498AF99FFF747
:101DE000C5FDAF990C20FEF74FFBA598A69AA79BBF
:101DF000AA994FF4407CADF850C58DF852358DF856
:101E00005325FEF733FAA69AA79BA998AA994FF4EF
:101E1000C04CADF850C58DF852358DF85325FEF7FE
:101E200025FAA79BA89AA998AA994FF0400CADF85B
:101E300050C58DF852358DF85325FEF717FAAB983B
:101E4000AF99FEF721FBAC9840F2CF21ADF82015F9
:101E5000ADF82205C721ADF82415ADF826058DF89B
:101E6000280542F60040C4F20100AE900DF5A461D1
:101E7000FFF7DAFCAE98AF99FFF716FBAD99AE9875
:101E8000FFF7F4FBAD99AE98FFF7AEFCAE98AF99B3
:101E9000FFF720FBFFE701F08FF80320FEF7D2F9F0
:101EA00040F26800C2F20000006802286FD1FFE72C
:101EB00060209E90ADF810053220ADF81605012087
:101EC0009690ADF8120500209B90ADF81805ADF87E
:101ED000140508209790ADF81A0542F60040C4F2A8
:101EE00001009C900DF5A2619891FFF70DFB9E9A61
:101EF0009B999C98ADF800253422ADF80625ADF8E5
:101F0000021502229992ADF8082504229A92ADF8A2
:101F10000425ADF80A150DF5A0619D91FFF7C4FBEE
:101F2000C820FEF78FF9DDF858C2979A98999B9BC5
:101F30009C98DDF878E2ADF810E5ADF81635ADF80F
:101F400012C5ADF81835ADF81435ADF81A25FFF700
:101F5000DBFADDF864C29A9B9B9A9C989D99DDF808
:101F600078E2ADF800E5ADF80625ADF80225ADF84C
:101F700008C5ADF80435ADF80A25FFF795FB40F22A
:101F80006801C2F200014FF0FF300860FFE740F245
:101F90006800C2F200000068032870D1FFE76020EB
:101FA0009590ADF8F004BC208C90ADF8F6040020BC
:101FB0009290ADF8F20402219091ADF8F81404214A
:101FC0009191ADF8F414ADF8FA0442F60040C4F271
:101FD000010093900DF59E618F91FFF795FA8C9A11
:101FE000959B92999398ADF8E034ADF8E6240122E0
:101FF0008D92ADF8E224ADF8E814ADF8E4140821B0
:102000008E91ADF8EA140DF59C619491FFF74CFBAD
:10201000C820FEF717F9DDF834C28E9A8F99929B8B
:102020009398DDF854E2ADF8F0E4ADF8F634ADF88D
:10203000F2C4ADF8F834ADF8F434ADF8FA24FFF793
:1020400063FADDF840C2919B929A93989499DDF8D7
:1020500054E2ADF8E0E4ADF8E624ADF8E224ADF8E2
:10206000E8C4ADF8E434ADF8EA24FFF71DFB40F214
:102070006801C2F200014FF0FF300860FFE740F254
:102080006800C2F20000006804286FD1FFE76020FA
:102090008B90ADF8D0044220ADF8D6040120839097
:1020A000ADF8D20400208890ADF8D804ADF8D4047F
:1020B00008208490ADF8DA0442F60040C4F2010032
:1020C00089900DF59A618591FFF71EFA8B9A889990
:1020D0008998ADF8C0244622ADF8C624ADF8C214E4
:1020E00002228692ADF8C82404228792ADF8C42457
:1020F000ADF8CA140DF598618A91FFF7D5FA0A2058
:10210000FEF7A0F8DDF80CC2849A8599889B89981F
:10211000DDF82CE2ADF8D0E4ADF8D634ADF8D2C499
:10212000ADF8D834ADF8D434ADF8DA24FFF7ECF9D3
:10213000DDF818C2879B889A89988A99DDF82CE285
:10214000ADF8C0E4ADF8C624ADF8C224ADF8C8C4FB
:10215000ADF8C434ADF8CA24FFF7A6FA40F268011E
:10216000C2F200014FF0FF300860FFE740F2680064
:10217000C2F20000006805286FD1FFE7602082905E
:10218000ADF8B0044A20ADF8B60401207A90ADF85D
:10219000B20400207F90ADF8B804ADF8B404082074
:1021A0007B90ADF8BA0442F60040C4F20100809082
:1021B0000DF596617C91FFF7A7F9829A7F99809837
:1021C000ADF8A0244422ADF8A624ADF8A214022252
:1021D0007D92ADF8A82404227E92ADF8A424ADF837
:1021E000AA140DF594618191FFF75EFA0A20FEF7BB
:1021F00029F8DDF8E8C17B9A7C997F9B8098DDF80F
:1022000008E2ADF8B0E4ADF8B634ADF8B2C4ADF85C
:10221000B834ADF8B434ADF8BA24FFF775F9DDF889
:10222000F4C17E9B7F9A80988199DDF808E2ADF831
:10223000A0E4ADF8A624ADF8A224ADF8A8C4ADF88A
:10224000A434ADF8AA24FFF72FFA40F26801C2F2D5
:1022500000014FF0FF300860FFE740F26800C2F273
:102260000000006806286FD1FFE760207990ADF884
:1022700090044020ADF8960401207190ADF89204CE
:1022800000207690ADF89804ADF894040820729080
:10229000ADF89A0442F60040C4F2010077900DF5C3
:1022A00092617391FFF730F9799A76997798ADF842
:1022B00080245A22ADF88624ADF88214022274924A
:1022C000ADF8882404227592ADF88424ADF88A1400
:1022D0000DF590617891FFF7E7F90F20FDF7B2FF58
:1022E000DDF8C4C1729A7399769B7798DDF8E4E1C2
:1022F000ADF890E4ADF89634ADF892C4ADF89834EA
:10230000ADF89434ADF89A24FFF7FEF8DDF8D0C1AB
:10231000759B769A77987899DDF8E4E1ADF880E4DA
:10232000ADF88624ADF88224ADF888C4ADF88434C5
:10233000ADF88A24FFF7B8F940F26801C2F2000153
:102340004FF0FF300860FFE740F26800C2F2000083
:10235000006807286FD1FFE760207090ADF8700427
:102360005A20ADF8760401206890ADF87204002080
:102370006D90ADF87804ADF8740408206990ADF85C
:102380007A0442F60040C4F201006E900DF58E61B1
:102390006A91FFF7B9F8709A6D996E98ADF860245C
:1023A0003C22ADF86624ADF8621402226B92ADF8BF
:1023B000682404226C92ADF86424ADF86A140DF51B
:1023C0008C616F91FFF770F90F20FDF73BFFDDF88F
:1023D000A0C1699A6A996D9B6E98DDF8C0E1ADF86D
:1023E00070E4ADF87634ADF872C4ADF87834ADF879
:1023F0007434ADF87A24FFF787F8DDF8ACC16C9B34
:102400006D9A6E986F99DDF8C0E1ADF860E4ADF8B3
:102410006624ADF86224ADF868C4ADF86434ADF854
:102420006A24FFF741F940F26801C2F200014FF05F
:10243000FF300860FFE740F26800C2F20000006869
:1024400008286DD1FFE760206790ADF85004282080
:10245000ADF8560400206490ADF852040221629158
:10246000ADF8581404216391ADF85414ADF85A0432
:1024700042F60040C4F2010065900DF58A61619159
:10248000FFF742F8DDF89CC1629B639A64996598F6
:10249000ADF840C44FF0500CADF846C4ADF842144E
:1024A000ADF84834ADF84424ADF84A140DF5886110
:1024B0006691FFF7F9F80F20FDF7C4FE6199679B5D
:1024C000649A6598ADF85034ADF856240123ADF800
:1024D0005234ADF85824ADF854240822ADF85A24EB
:1024E000FFF712F8DDF888C1639B649A65986699D6
:1024F000DDF89CE1ADF840E4ADF84624ADF84224A7
:10250000ADF848C4ADF84434ADF84A24FFF7CCF830
:1025100040F26801C2F200014FF0FF300860FFE7AF
:1025200040F26800C2F20000006809286FD1FFE79E
:1025300060206090ADF830045A20ADF836040120D8
:102540005890ADF8320400205D90ADF83804ADF835
:10255000340408205990ADF83A0442F60040C4F221
:1025600001005E900DF586615A91FEF7CDFF609AED
:102570005D995E98ADF820243C22ADF82624ADF894
:10258000221402225B92ADF8282404225C92ADF85A
:102590002424ADF82A140DF584615F91FFF784F8C7
:1025A0000F20FDF74FFEDDF860C1599A5A995D9BE7
:1025B0005E98DDF880E1ADF830E4ADF83634ADF882
:1025C00032C4ADF83834ADF83434ADF83A24FEF7FF
:1025D0009BFFDDF86CC15C9B5D9A5E985F99DDF8AE
:1025E00080E1ADF820E4ADF82624ADF82224ADF862
:1025F00028C4ADF82434ADF82A24FFF755F840F28A
:102600006801C2F200014FF0FF300860FFE740F2BE
:102610006800C2F2000000680A286FD1FFE760205E
:102620005790ADF810043C20ADF8160401204F90EF
:10263000ADF8120400205490ADF81804ADF814045D
:1026400008205090ADF81A0442F60040C4F2010090
:1026500055900DF582615191FEF756FF579A5499A6
:102660005598ADF800245522ADF80624ADF80214B3
:1026700002225292ADF8082404225392ADF80424A9
:10268000ADF80A140DF580615691FFF70DF86E2034
:10269000FDF7D8FDDDF83CC1509A5199549B5598EF
:1026A000DDF85CE1ADF810E4ADF81634ADF812C415
:1026B000ADF81834ADF81434ADF81A24FEF724FF41
:1026C000DDF848C1539B549A55985699DDF85CE162
:1026D000ADF800E4ADF80624ADF80224ADF808C466
:1026E000ADF80434ADF80A24FEF7DEFF40F26801CD
:1026F000C2F200014FF0FF300860FFE740F26800CF
:10270000C2F2000000680B286DD1FFE760204E90F8
:10271000ADF8F0033C20ADF8F60301204690ADF88B
:10272000F20300204B90ADF8F803ADF8F403082055
:102730004790ADF8FA0342F60040C4F201004C9015
:10274000FCA94891FEF7E0FE4E9A4B994C98ADF8E3
:10275000E0234622ADF8E623ADF8E21302224992C7
:10276000ADF8E82304224A92ADF8E423ADF8EA1369
:10277000F8A94D91FEF798FF1420FDF763FDDDF8F1
:1027800018C1479A48994B9B4C98DDF838E1ADF851
:10279000F0E3ADF8F633ADF8F2C3ADF8F833ADF8C9
:1027A000F433ADF8FA23FEF7AFFEDDF824C14A9BFF
:1027B0004B9A4C984D99DDF838E1ADF8E0E3ADF86F
:1027C000E623ADF8E223ADF8E8C3ADF8E433ADF8A5
:1027D000EA23FEF769FF40F26801C2F200014FF000
:1027E000FF300860FFE740F26800C2F200000068B6
:1027F0000C286DD1FFE760204590ADF8D00346204E
:10280000ADF8D60301203D90ADF8D20300204290F0
:10281000ADF8D803ADF8D40308203E90ADF8DA0344
:1028200042F60040C4F201004390F4A93F91FEF744
:102830006BFE459A42994398ADF8C0233C22ADF80F
:10284000C623ADF8C21302224092ADF8C823042279
:102850004192ADF8C423ADF8CA13F0A94491FEF734
:1028600023FF1220FDF7EEFCDDF8F4C03E9A3F99FD
:10287000429B4398DDF814E1ADF8D0E3ADF8D633D0
:10288000ADF8D2C3ADF8D833ADF8D433ADF8DA2310
:10289000FEF73AFEDDF800C1419B429A4398449905
:1028A000DDF814E1ADF8C0E3ADF8C623ADF8C223FE
:1028B000ADF8C8C3ADF8C433ADF8CA23FEF7F4FED3
:1028C00040F26801C2F200014FF0FF300860FFE7FC
:1028D00040F26800C2F2000000680D286DD1FFE7E9
:1028E00060203C90ADF8B0033C20ADF8B603012069
:1028F0003490ADF8B20300203990ADF8B803ADF8CC
:10290000B40308203590ADF8BA0342F60040C4F293
:1029100001003A90ECA93691FEF7F6FD3C9A399900
:102920003A98ADF8A0235922ADF8A623ADF8A2132A
:1029300002223792ADF8A82304223892ADF8A423DE
:10294000ADF8AA13E8A93B91FEF7AEFE1920FDF7FA
:1029500079FCDDF8D0C0359A3699399B3A98DDF884
:10296000F0E0ADF8B0E3ADF8B633ADF8B2C3ADF812
:10297000B833ADF8B433ADF8BA23FEF7C5FDDDF8D2
:10298000DCC0389B399A3A983B99DDF8F0E0ADF815
:10299000A0E3ADF8A623ADF8A223ADF8A8C3ADF827
:1029A000A433ADF8AA23FEF77FFE40F26801C2F21D
:1029B00000014FF0FF300860FFE740F26800C2F20C
:1029C000000000680E286ED1FFE760203390ADF85C
:1029D00090033C202A90ADF8960301202B90ADF88F
:1029E000920300203090ADF89803ADF894030820CE
:1029F0002C90ADF89A0342F60040C4F201003190E9
:102A0000E4A92D91FEF780FD2A9A339B30993198E5
:102A1000ADF88033ADF88623ADF8821302222E92F2
:102A2000ADF8882304222F92ADF88423ADF88A13E1
:102A3000E0A93291FEF738FE1E20FDF703FCDDF819
:102A4000ACC02C9A2D99309B3198DDF8CCE0ADF8D4
:102A500090E3ADF89633ADF892C3ADF89833ADF886
:102A60009433ADF89A23FEF74FFDDDF8B8C02F9BE5
:102A7000309A31983299DDF8CCE0ADF880E3ADF8CA
:102A80008623ADF88223ADF888C3ADF88433ADF862
:102A90008A23FEF709FE40F26801C2F200014FF0FE
:102AA000FF300860FFE740F26800C2F200000068F3
:102AB0000F286BD1FFE760202990ADF870033D200F
:102AC000ADF8760300202690ADF872030221249120
:102AD000ADF8781304212591ADF87413ADF87A039D
:102AE00042F60040C4F201002790DCA92391FEF7D2
:102AF0000BFDDDF8A4C0249B259A26992798ADF8F4
:102B000060C34FF0580CADF866C3ADF86213ADF872
:102B10006833ADF86423ADF86A13D8A92891FEF79D
:102B2000C3FD1E20FDF78EFB2399299B269A27982B
:102B3000ADF87033ADF876230123ADF87233ADF8FC
:102B40007823ADF874230822ADF87A23FEF7DCFC75
:102B5000DDF890C0259B269A27982899DDF8A4E0F7
:102B6000ADF860E3ADF86623ADF86223ADF868C355
:102B7000ADF86433ADF86A23FEF796FD40F26801C4
:102B8000C2F200014FF0FF300860FFE740F268003A
:102B9000C2F20000006810286BD1FFE760201F9090
:102BA000ADF850035720ADF8560301201C90ADF846
:102BB000520300202090ADF85803ADF854030820CC
:102BC0001D90ADF85A0342F60040C4F20100219076
:102BD000D4A91E91FEF798FC1C9B1D99DDF87CC0C2
:102BE000209A2198ADF840C34FF03D0CADF846C394
:102BF000ADF84233ADF84823ADF84423ADF84A139D
:102C0000D0A92291FEF750FD1E20FDF71BFBDDF839
:102C100070C01D9A1E99209B2198DDF87CE0ADF8CC
:102C200050E3ADF85633ADF852C3ADF85833ADF8B4
:102C30005433ADF85A23FEF767FC1F9B209A219866
:102C40002299ADF84033ADF84623ADF84223022374
:102C5000ADF848330423ADF84433ADF84A23FEF70A
:102C600023FD40F26801C2F200014FF0FF3008601E
:102C7000FFE740F26800C2F200000068112873D13B
:102C8000FFE74FF4FA701B90FDF7DCFA60201A9012
:102C9000ADF83003A020ADF8360300201790ADF852
:102CA000320302211591ADF8381304211691ADF8C5
:102CB0003413ADF83A0342F60040C4F20100189014
:102CC000CCA91491FEF720FCDDF868C0159B169A7C
:102CD00017991898ADF820C34FF03C0CADF826C3F7
:102CE000ADF82213ADF82833ADF82423ADF82A133C
:102CF000C8A91991FEF7D8FC40F20D20FDF7A2FA01
:102D000014991A9B179A1898ADF83033ADF83623FA
:102D10000123ADF83233ADF83823ADF8342308225F
:102D2000ADF83A23FEF7F0FBDDF854C0169B179A76
:102D300018981999DDF868E0ADF820E3ADF826237E
:102D4000ADF82223ADF828C3ADF82433ADF82A231B
:102D5000FEF7AAFC1B98FDF775FA40F26801C2F273
:102D6000000113200860FFE740F26800C2F2000093
:102D7000006812286FD1FFE732200C90FDF762FA4D
:102D800060201390ADF810035020ADF8160300201A
:102D90001090ADF8120302210E91ADF81813042122
:102DA0000F91ADF81413ADF81A0342F60040C4F2C7
:102DB00001001190C4A90D91FEF7A6FBDDF84CC0EF
:102DC0000E9B0F9A10991198ADF800C34FF0690C43
:102DD000ADF806C3ADF80213ADF80833ADF804231F
:102DE000ADF80A13C0A91291FEF75EFC0C98FDF72E
:102DF00029FA0D99139B109A1198ADF81033ADF87C
:102E000016230123ADF81233ADF81823ADF81423BF
:102E10000822ADF81A23FEF777FBDDF838C00F9BC8
:102E2000109A11981299DDF84CE0ADF800E3ADF876
:102E30000623ADF80223ADF808C3ADF80433ADF8AE
:102E40000A23FEF731FC40F26801C2F200014FF0A4
:102E5000FF300860FFE740F26800C2F2000000683F
:102E600013286ED1FFE760200B90ADF8F0025A20D6
:102E7000ADF8F60201200390ADF8F20200200890B0
:102E8000ADF8F802ADF8F40208200490ADF8FA02AB
:102E900042F60040C4F201000990BCA90591FEF77A
:102EA00033FB0B9A08990998ADF8E0223222ADF86D
:102EB000E622ADF8E21202220692ADF8E8220422E0
:102EC0000792ADF8E422ADF8EA12B8A90A91FEF72C
:102ED000EBFB40F2A910FDF7B5F9DDF80CC0049A40
:102EE0000599089B0998DDF82CE0ADF8F0E2ADF803
:102EF000F632ADF8F2C2ADF8F832ADF8F432ADF812
:102F0000FA22FEF701FBDDF818C0079B089A099822
:102F10000A99DDF82CE0ADF8E0E2ADF8E622ADF874
:102F2000E222ADF8E8C2ADF8E432ADF8EA22FEF7ED
:102F3000BBFB40F26801C2F200014FF0FF300860B5
:102F4000FFE760200090ADF8D00240F27800C2F2B6
:102F500000000068ADF8D6020120ADF8D2020020D2
:102F60000190ADF8D802ADF8D4020820ADF8DA022D
:102F700042F60040C4F201000290B4A9FEF7C4FA80
:102F8000009A01990298ADF8C02240F27C02C2F288
:102F900000021268ADF8C622ADF8C2120222ADF8E6
:102FA000C8220422ADF8C422ADF8CA12B0A9FEF7B7
:102FB0007BFBFEF770BF000080B540F60000C4F256
:102FC00001008021FDF73AFA0120FDF73BF943F2B9
:102FD0000000C4F201000021FEF792F82320FEF762
:102FE000D3FD80BD020406080000000000000000C0
:102FF000010203040607080900000000010203049F
:103000000102030406070809283000080000002018
:1030100004000000280100082C30000808000020EF
:0C302000800600004401000800A24A04E1
:040000050800018965
:00000001FF
