:100000000C9434000C9446000C9446000C9446006A
:100010000C9446000C9446000C9446000C94460048
:100020000C9446000C9446000C9446000C94460038
:100030000C9446000C9446000C945A000C94460014
:100040000C9446000C9446000C9446000C94460018
:100050000C9446000C9446000C9446000C94460008
:100060000C9446000C94460011241FBECFEFD8E03C
:10007000DEBFCDBF21E0A0E0B1E001C01D92A23003
:10008000B207E1F70E94E2000C94FC000C9400001F
:100090001092800085E08093810089EF8093850035
:1000A00085EE80938400B09BFECF1092810081E0AA
:1000B00086BB08951F920F920FB60F9211242F93B3
:1000C0003F934F935F936F937F938F939F93AF93E0
:1000D000BF93EF93FF930E9448000E944800109244
:1000E00001011092000184B1816084B94A9908C06D
:1000F00081E090E0909301018093000181E34FC083
:100100004B9908C081E090E0909301018093000139
:1001100083E345C084B18E7F84B984B1826084B9A1
:100120004A9908C081E090E090930101809300011A
:1001300080E335C04B9908C081E090E090930101C5
:100140008093000184E32BC084B18D7F84B984B196
:10015000846084B94A9908C081E090E090930101DD
:100160008093000182E31BC04B9908C081E090E0BE
:10017000909301018093000185E311C084B18B7FCE
:1001800084B98091000190910101892B09F0A7CFDA
:100190004A9B04C04B99A3CF87E301C086E38093B9
:1001A000C600FF91EF91BF91AF919F918F917F9189
:1001B0006F915F914F913F912F910F900FBE0F90D4
:1001C0001F90189587E084B982E08AB99CE09BB9BA
:1001D0001092B00084BD99EF97BD27E630E03093D0
:1001E000C5002093C40080936E0083E085BD88E045
:0C01F0008093C1007894FFCFF894FFCFFB
:00000001FF
