:020000040800F2
:10000000F0060020950100089D0100089F010008EE
:10001000A1010008A3010008A501000800000000DC
:10002000000000000000000000000000A701000820
:10003000A901000800000000AB010008AD010008A4
:10004000AF010008AF010008AF010008AF010008D0
:10005000AF010008AF010008AF010008AF010008C0
:10006000AF010008AF010008AF010008AF010008B0
:10007000AF010008AF010008AF010008AF010008A0
:10008000AF010008AF010008AF010008AF01000890
:10009000AF010008AF010008AF010008AF01000880
:1000A000AF010008ED050008AF010008AF0100082E
:1000B000AF010008AF010008AF010008AF01000860
:1000C000AF010008AF010008AF0100086D0400088F
:1000D000AF010008AF0100083906000879060008E2
:1000E000AF010008AF010008AF01000800F002F8FE
:1000F00000F041F80AA090E8000C82448344AAF181
:100100000107DA4501D100F036F8AFF2090EBAE87E
:100110000F0013F0010F18BFFB1A43F0010318473B
:10012000580C0000780C0000103A24BF78C878C141
:10013000FAD8520724BF30C830C144BF04680C60ED
:10014000704700000023002400250026103A28BF35
:1001500078C1FBD8520728BF30C148BF0B60704739
:10016000642900F07F80002070471FB500F0BAF8C6
:100170001FBD10B510BD00F03EF91146FFF7F5FFA9
:1001800000F024FD00F05CF903B4FFF7F2FF03BCBC
:1001900000F066F90948804709480047FEE7FEE796
:1001A000FEE7FEE7FEE7FEE7FEE7FEE7FEE7FEE727
:1001B00004480549054A064B70470000DD04000865
:1001C000ED000008F0000020F0060020F002002002
:1001D000F00200200FB41CB5074B06AA7B44694609
:1001E0000090059800F0EFF80020694600F0FEF856
:1001F0001CBC5DF814FB00000D0200002DE9F0416D
:100200000E460446002020622046E168884730B34D
:10021000252805D0D4E901219047206A401CF2E747
:10022000E168204600278847050018D0A5F1410065
:10023000192802D820354FF4006732462946204657
:100240002760FFF78DFF40B1012804D0F61D26F08E
:1002500007060836D8E7361DD6E72846DAE7206ACB
:10026000BDE8F0812DE9F0410646002410687529AB
:10027000314616A510D0AFF30080002802DA4042C4
:1002800013A507E031688A0701D512A502E04907E6
:1002900004D511A5012401E0AFF3008000210A225A
:1002A00006F1240709E0B0FBF2FCB0FBF2F302FB1D
:1002B0001C00303078541846491C0028F3D12346DE
:1002C0002A463046BDE8F04100F01EB800000000AC
:1002D0002D0000002B000000200000007047704738
:1002E0007047000070B5064C7C44064D7D4404E028
:1002F0002046016808448047241DAC42F8D170BDF7
:10030000AC0A0000B00A00002DE9F0470D469946FE
:100310009246044600F124080168880604D5E06985
:1003200021F01001216000E00120A84201DD471BFF
:1003300000E00027A1697A1902EB0900081AA06100
:100340002078C00602D42046AFF30080002608E0E3
:10035000D4E901211AF806009047206A401C761C57
:1003600020624E45F4DB2078C0060AD52046AFF364
:10037000008006E0D4E9012130209047206A401C2B
:100380002062381EA7F10107F4DC07E0D4E901215F
:1003900018F805009047206A401C2062281EA5F12D
:1003A0000105F3DC2046AFF300802078000602D57B
:1003B0000220BDE8F0870120FBE7000001694A1C2C
:1003C00002610878704700B58FB0CDE90131002196
:1003D000059105497944CDE9031011466846FFF7B8
:1003E0000DFF0FB000BD0000E5FFFFFF0A6802F837
:1003F000010B0A607047754600F02CF8AE46050008
:100400006946534620F00700854618B020B5FFF72F
:10041000CFFEBDE820404FF000064FF000074FF040
:1004200000084FF0000BAC46ACE8C009ACE8C009CE
:10043000ACE8C009ACE8C00921F007018D4670475F
:1004400010B50446AFF300802046BDE81040FFF72A
:100450009BBE000000487047080000207047000065
:1004600001491820ABBEFEE72600020080B543F22A
:100470000400C4F201000188090644BF81885FEAD4
:10048000817118D48188C90714D0018980888007B8
:1004900058BF80BD40F28802C2F2000240F29800CC
:1004A0001368C2F200000170581C106000F00700D1
:1004B00000F08CFA80BD40F28C01C2F200010A68A3
:1004C000013A0A6002D0FF210181DBE700210181AE
:1004D000018821F080010180D4E7000082B041F260
:1004E0000400C4F2020050F8041C002241F0010193
:1004F00040F8041C0168CFF6FF021140016050F87B
:10050000041C4FF6FF72CFF6F662114040F8041C4F
:1005100050F8041C21F4802140F8041C016821F4E7
:10052000FE0101604FF41F01416000210191009123
:1005300050F8041C41F4803140F8041C50F8041CAD
:1005400001F400310091019901310191009919B92B
:100550000199B1F5A06FF1D150F8041C890354BF83
:100560000021012100910099012936D142F20001B8
:10057000C4F202010A6842F010020A600A6822F01E
:1005800007020A600A6842F002020A60016801601C
:1005900001680160016841F480610160016821F433
:1005A0007C110160016841F4E811016050F8041CFD
:1005B00041F0807140F8041C50F8041C8901FBD5FF
:1005C000016821F003010160016841F0020101604E
:1005D000016801F00C010829FAD14EF60850CEF25C
:1005E00000004FF00061016002B070472420C4F2A7
:1005F0000000018840F29002C2F200021160B0F8DF
:10060000000840F29401C2F20001086042F6104076
:10061000C4F201000188042221F00101018040F2AE
:100620008C01C2F200010A60B0F8F41341F08001BD
:10063000A0F8F4137047000044F20C40C4F200002C
:1006400030F80C1C090658BF704740F2A001C2F2F6
:1006500000010A683AB1137853B1531C0B6011784A
:1006600020F8081C7047018821F080010180704744
:10067000002008607047000044F60C00C4F200003F
:1006800030F80C1C090658BF704740F2A401C2F2B2
:1006900000010A683AB1137853B1531C0B6011780A
:1006A00020F8081C7047018821F080010180704704
:1006B000002008607047000040F26800C2F20000AD
:1006C0000121017040F26C00C2F20000017040F69E
:1006D0001400C4F201004FF48052C0F8FC2340F231
:1006E0007802C2F20002117040F27C02C2F20002F3
:1006F00011704022C0F8002440F2A802C2F20002A9
:10070000117040F2AC02C2F2000211700160704739
:10071000F0B541F21800C4F2020041F60C2101606C
:100720000521C0F20601416040F6000044F6422176
:10073000C4F20100CAF2A44101604AF2AA41C4F223
:100740004441416044F24041C4F24421C0F80014E5
:1007500040F6044044F64421C4F20100CAF6A22146
:1007600001604FF60C4043F20001CFF6FF70C4F277
:1007700001014FF0010C21F800C04FF62840CFF6E0
:10078000FF7003220A524FF62C40CFF6FF704AF654
:10079000C7720A524FF61840CFF6FF7046F668024D
:1007A0000A524FF62040CFF6FF704FF400720A5203
:1007B0004FF64440CFF6FF704FF4004244F20C4332
:1007C0000A52C4F2000340F6A66023F8040C40F27B
:1007D0003910A3F8FC0344F60C00C4F200000C220C
:1007E0000280028842F2104E1A80C4F2010E4FF0CD
:1007F000E062CEF800200824402540F23E32CEF8D8
:1008000024408D800A801822C4F200026726A2F8D4
:10081000F067B2F8F0674FF0007722F8106C4FF4F1
:1008200080761680168816804EF20416CEF20006E8
:1008300046F8047C35608025356034601C8844F4BB
:1008400000541C80038843F400530380088840F060
:1008500040000880A2F8E8C7B2F8E8074FF08041EE
:100860000880AEF8F0C7F0BD40F2B800C2F2000058
:10087000006843F22D41CFF6A911A0FB01016FF0F2
:10088000250000EB9120704740F2A402C2F2000262
:10089000116841B9106044F60C00C4F200000288EF
:1008A00042F080020280B1FA81F0400970470000F6
:1008B00040F26C00C2F200000078022825D340F21A
:1008C0007400C2F2000040F270020168C2F200023D
:1008D000126801319142016017D30021016040F696
:1008E0000C40C4F20100016840F26800C2F200004E
:1008F0000078002818BF4FF48050084240F610419D
:10090000C4F201010CBF0860486040F27C00C2F2F2
:1009100000000078022824D340F28400C2F20000D4
:1009200040F280020168C2F2000212680131914275
:10093000016016D30021016040F60C40C4F20100B2
:10094000016840F27800C2F200000078002818BF69
:100950004020084240F61041C4F201010CBF08607B
:10096000486040F2AC00C2F20000007802282BD3AD
:1009700040F2B401C2F2000140F2B0020868C2F2D3
:100980000002126801309042086038BF70470022B0
:1009900040F60C400A604FF60041C4F20100CFF669
:1009A000FF71425840F2A801C2F2000109780A42E0
:1009B00005D04FF60842CFF6FF72815070474FF6D0
:1009C0000442CFF6FF7281507047000080B508B333
:1009D000072836D142F62040C4F2010030F8041C4A
:1009E00046F60102914205D140F2B801C2F200017F
:1009F00000220A60018821F4807101804AF6147196
:100A0000818346F6700120F8041C018841F480615E
:100A1000018080BD42F62040C4F20100018821F42B
:100A20008061018046F6010120F8041C018841F430
:100A30008071018030F8101C21F0080120F8101C92
:100A400080BD42F62041C4F2010131F8102C12079A
:100A500058BF80BD8B8B4AF6C87C00FB0C3040F23F
:100A6000B80EC2F2000ECEF800008A8B8B889A4234
:100A700084BFA0EB0C00CEF8000031F8100C20F081
:100A8000080021F8100C088820F48070088046F6D1
:100A9000030021F8040C80BD2DE9F04100B340F2C1
:100AA0008804C2F20004216842F2084840F29C0720
:100AB000C4F201080E18C2F20007012503E000BFCE
:100AC00021688E420AD038688842F9D03960C8F867
:100AD0000050FFF7EDFE00F01FF8F1E7BDE8F081F0
:100AE00040F29C0040F28801C2F20000C2F2000114
:100AF000026809688A4208BFBDE8F081016042F2DD
:100B00000840C4F2010001210160FFF7D1FE00F0AE
:100B100003F8BDE8F081000080B540F2BC00C2F2ED
:100B2000000001684A1C0729026016DB00210160F1
:100B300040F60800C4F2010040F200010068C2F271
:100B400000010A6800F48050824208BF80BD08603E
:100B5000002818BF012000F037F880BD40F298004F
:100B6000C2F200000078704742F63441C4F201013D
:100B70000880704742F62041C4F201010A8804232C
:100B800022F005020A800A88002818BF012342EAE1
:100B9000030008807047000042F63841C4F20101AA
:100BA0000880704742F62041C4F201010A881023F0
:100BB00022F050020A800A88002818BF402342EA27
:100BC00003000880704700007047000040F2C40432
:100BD00040F2E40740F2040A40F2E80940F2C00B98
:100BE000C2F200040FF27418C2F20007C2F2000A47
:100BF000C2F20009C2F2000B16E000BF42F2107010
:100C000042F21076FFF7B0FF55463046FFF7C4FFBB
:100C10002868002818BF0120FFF7ACFF28680028CB
:100C200018BF0120FFF7BEFF2820FFF735FFFFF7B1
:100C300095FF0646FFF718FE024620464146FFF79D
:100C4000C9FAF0074FF0300008BF2E206070B007DF
:100C50004FF0300058BF2E20A07070074FF03000CA
:100C600058BF2E20E07030074FF0300058BF2E20C4
:100C70002071F0064FF0300058BF2E20A071B00652
:100C80004FF0300058BF2E20E07170064FF030005A
:100C900058BF2E20207230064FF0300058BF2E2053
:100CA00060722046FFF7F0FDFFF7DEFD2C2838606C
:100CB00015DB42F21070FFF757FF42F21070FFF79A
:100CC0006BFFDAF80000002818BF0120FFF752FF81
:100CD000DAF80000002818BF0120FFF763FF38682A
:100CE000A0F12401062989D9A0F11A01082905D803
:100CF00042F21C5042F21C5684E700BFA0F11501DD
:100D0000032904D841F6786041F678667AE720F046
:100D10000301102904D141F27C5041F27C5671E765
:100D2000A0F10D01012904D841F2680041F26806E2
:100D300068E7A0F10901022902D80020002661E736
:100D400007283FF771AF0020C9F800000020FFF727
:100D50000BFFD9F800605D4657E700BF0D30313218
:100D600033203435363720202064697374616E6314
:100D7000653D256420202000A00D00080000002013
:100D80000800000028010008A80D00080800002045
:100D9000E80600004401000821F9FFFF75F9FFFF94
:080DA00000100000010000003A
:040000050800019559
:00000001FF
