:020000040800F2
:10000000880600206D0100087501000877010008CE
:10001000790100087B0100087D0100080000000054
:100020000000000000000000000000007F01000848
:10003000810100080000000083010008850100081C
:100040008701000887010008870100088701000870
:100050008701000887010008870100088701000860
:100060008701000887010008870100088701000850
:100070008701000887010008870100088701000840
:100080008701000887010008870100088701000830
:100090008701000887010008870100088701000820
:1000A0008701000887010008870100088701000810
:1000B0008701000887010008870100088701000800
:1000C00087010008870100088701000887010008F0
:1000D0008701000887010008BD030008ED0500083E
:1000E00087010008870100088701000800F002F876
:1000F00000F02CF80AA090E8000C82448344AAF196
:100100000107DA4501D100F021F8AFF2090EBAE893
:100110000F0013F0010F18BFFB1A43F0010318473B
:10012000F0090000000A000000230024002500263A
:10013000103A28BF78C1FBD8520728BF30C148BF4A
:100140000B6070471FB51FBD10B510BD00F031F832
:100150001146FFF7F7FF00F0D1FC00F04FF803B4B1
:10016000FFF7F2FF03BC00F057F800000948804792
:1001700009480047FEE7FEE7FEE7FEE7FEE7FEE789
:10018000FEE7FEE7FEE7FEE704480549054A064BA1
:100190007047000055030008ED00000888000020AB
:1001A00088060020880200208802002070477047DF
:1001B0007047754600F02CF8AE4605006946534678
:1001C00020F00700854618B020B5FFF7DDFFBDE839
:1001D00020404FF000064FF000074FF000084FF0AE
:1001E000000BAC46ACE8C009ACE8C009ACE8C009FB
:1001F000ACE8C00921F007018D46704710B50446F0
:10020000AFF300802046BDE81040FFF7A8BF000014
:10021000004870470000002001491820ABBEFEE7EF
:10022000260002007047000080B500F001F880BD94
:1002300084B000200390029041F20001C4F2020158
:10024000086840F480300860FFE741F20000C4F223
:100250000200006800F4003002900398013003901F
:10026000FFE702990020019039B9FFE70398B0F544
:10027000A06018BF01200190FFE70198C007002887
:10028000E3D1FFE741F20000C4F2020000688003FE
:10029000002803D5FFE70120029002E00020029031
:1002A000FFE70298012851D1FFE742F20001C4F2B2
:1002B0000201086840F010000860086820F007009C
:1002C0000860086840F00200086041F20401C4F2CE
:1002D000020100910868086008680860086840F436
:1002E00080600860086820F47C100860086840F4AA
:1002F000E810086041F20001C4F20201086840F011
:1003000080700860FFE741F20000C4F2020000685C
:100310008001002801D4FFE7F5E741F20401C4F2AF
:100320000201086820F003000860086840F002003D
:100330000860FFE741F20400C4F20200006800F028
:100340000C00082801D0FFE7F4E700E0FFE704B065
:100350007047000080B541F20002C4F2020210684A
:1003600040F00100106041F20401C4F2020108688B
:100370000023CFF6FF031840086010684FF6FF73A4
:10038000CFF6F66318401060106820F480201060EB
:10039000086820F4FE00086041F20801C4F202017E
:1003A0004FF41F000860FFF73FFF4EF60851CEF2F2
:1003B00000014FF00060086080BD000080B584B08F
:1003C00044F20040C4F200000088000600282FD547
:1003D000FFE740F26C00C2F200000068F0B1FFE7F6
:1003E00040F26C00C2F200000068007870B1FFE7D4
:1003F00040F26C02C2F200021068411C11600078E9
:1004000044F20441C4F20001088006E040F26C01AD
:10041000C2F2000100200860FFE708E044F20C414E
:10042000C4F20001088820F080000880FFE7FFE7A1
:1004300044F20040C4F2000000888006002840F129
:10044000D280FFE744F20440C4F2000000888DF837
:100450000F009DF80F0000F0C000014602914028F7
:1004600021D0FFE7029850282DD0FFE7029860289E
:1004700039D0FFE70298802845D0FFE702989028FE
:1004800051D0FFE70298A0285DD0FFE70298B0287E
:1004900069D0FFE70298C02875D0FFE70298D028FE
:1004A00000F081808FE09DF80F0040F27801C2F2E9
:1004B0000001087040F27401C2F20001086880F087
:1004C000010008608EE09DF80F0040F27801C2F252
:1004D0000001087040F27401C2F20001086880F067
:1004E000010008607EE09DF80F0040F27801C2F242
:1004F0000001087040F27401C2F20001086880F047
:10050000010008606EE09DF80F0040F26401C2F245
:100510000001086040F27401C2F20001086880F036
:10052000020008605EE09DF80F0040F26401C2F234
:100530000001086040F27401C2F20001086880F016
:10054000020008604EE09DF80F0040F26401C2F224
:100550000001086040F27401C2F20001086880F0F6
:10056000020008603EE09DF80F0040F26401C2F214
:100570000001086040F27401C2F20001086880F0D6
:10058000020008602EE09DF80F0040F26801C2F200
:100590000001086040F27401C2F20001086880F0B6
:1005A000040008601EE09DF80F0040F26801C2F2EE
:1005B0000001086040F27401C2F20001086880F096
:1005C000040008600EE00020019000F047FA019856
:1005D00000F072FA9DF80F0040F27001C2F20001C3
:1005E0000870FFE7FFE704B080BD000044F600009C
:1005F000C4F200000088000600282FD5FFE740F273
:100600006000C2F200000068F0B1FFE740F2600055
:10061000C2F200000068007870B1FFE740F26002AB
:10062000C2F200021068411C1160007844F6040117
:10063000C4F20001088006E040F26001C2F200014D
:1006400000200860FFE708E044F60C01C4F2000156
:10065000088820F080000880FFE7FFE7704700006F
:1006600080B582B08DF807009DF80700502807D1AB
:10067000FFE740F28001C2F20001012008701AE099
:100680009DF80700602807D1FFE740F28001C2F221
:100690000001002008700DE09DF80700402808D1F7
:1006A000FFE70020009000F0D9F9009800F004FA6C
:1006B000FFE7FFE7FFE702B080BD000080B582B032
:1006C00042F2107000F0CAF94FF47A5000F0F4F9D9
:1006D0000120019000F09EF9019800F0C9F902B0E4
:1006E00080BD000080B582B040F27C00C2F2000004
:1006F000006840F27401C2F20001096848400190AC
:10070000019808B9FFE740E09DF80400C00780B1F8
:10071000FFE740F27C01C2F20001086880F00100AE
:10072000086040F27800C2F200000078FFF798FFFE
:10073000FFE79DF804008007002810D5FFE740F28E
:100740007C01C2F20001086880F00200086040F2FB
:100750006400C2F20000006800F006F9FFE79DF8AF
:1007600004004007002810D5FFE740F27C01C2F2E8
:100770000001086880F00400086040F26800C2F2DE
:100780000000006800F032F9FFE702B080BD000011
:1007900080B582B044F2506000F060F94FF4FA5036
:1007A00000F08AF90120019000F034F9019800F07E
:1007B0005FF902B080BD000080B582B043F2B06046
:1007C00000F04CF942F6F82000F076F90120019093
:1007D00000F020F9019800F04BF902B080BD000054
:1007E00080B582B043F2B06000F038F942F6F820EC
:1007F00000F062F90020019000F00CF9019800F07F
:1008000037F902B080BD000080B582B044F62060A8
:1008100000F024F94FF47A5000F04EF901200190D5
:1008200000F0F8F8019800F023F902B080BD000054
:1008300080B582B044F6206000F010F944F26820E0
:1008400000F03AF90020019000F0E4F8019800F07F
:100850000FF902B080BD000080B582B041F21C01EA
:10086000C4F202010520C0F20600086041F218013E
:10087000C4F2020141F60C20086040F60001C4F207
:10088000010144F64220CAF2A240086040F6040189
:10089000C4F201014AF2AA40C4F24440086040F6A2
:1008A0000041C4F2010144F24040C4F24420086017
:1008B00040F60441C4F2010144F64420CAF6A220E5
:1008C000086042F60C41C4F201011120088042F692
:1008D0002841C4F201010320088042F62C41C4F2F1
:1008E00001014AF6C770088042F61841C4F20101BE
:1008F00046F66800088042F61C41C4F2010146F643
:100900000300088042F64441C4F201014FF4004064
:10091000088042F64041C4F2010141F2883008806B
:1009200044F60800C4F200004FF49C710180008876
:1009300044F20841C4F20001088044F20C41C4F2C0
:10094000000101912C200880262000F0BFF80199B9
:10095000088840F40050088042F60041C4F20101CA
:100960000120088002B080BD80B582B0019001985E
:1009700080280BD1FFE740F28000C2F2000000782F
:10098000012803D1FFE7FFF73FFF2DE001989028F2
:100990000BD1FFE740F28000C2F20000007801288E
:1009A00003D1FFE7FFF744FF1DE0019880280AD13B
:1009B000FFE740F28000C2F20000007818B9FFE7BC
:1009C000FFF7FAFE0EE0019890280AD1FFE740F207
:1009D0008000C2F20000007818B9FFE7FFF700FFBF
:1009E000FFE7FFE7FFE7FFE702B080BD80B582B019
:1009F00001900198C02803D1FFE7FFF7C9FE07E087
:100A00000198D02803D1FFE7FFF758FEFFE7FFE783
:100A100002B080BD81B08DF8030042F62041C4F2DF
:100A20000101088820F0050008809DF80300C00738
:100A300048B1FFE742F62041C4F20101088840F0C6
:100A40000100088008E042F62041C4F20101088854
:100A500040F004000880FFE701B0704781B00090CB
:100A6000009842F63441C4F20101088001B0704799
:100A700081B08DF8030042F62041C4F201010888DC
:100A800020F0500008809DF80300C00748B1FFE740
:100A900042F62041C4F20101088840F0400008807D
:100AA00008E042F62041C4F20101088840F010003D
:100AB0000880FFE701B0704781B00090009842F6CF
:100AC0003841C4F20101088001B0704781B08DF84F
:100AD00003009DF9030000280ED4FFE79DF90310E1
:100AE00001F01F02012090404A094EF20011CEF29F
:100AF000000141F82200FFE701B0704780B582B0E5
:100B000000200190FFF7A8FEFFE7FFF7EBFDFCE7F1
:100B1000200B0008000000208806000028010008C3
:040000050800016D81
:00000001FF
