:020000040800F2
:100000007006002089010008910100089301000892
:100010009501000897010008990100080000000000
:100020000000000000000000000000009B0100082C
:100030009D010008000000009F010008A1010008C8
:10004000A3010008A3010008A3010008A301000800
:10005000A3010008A3010008A3010008A3010008F0
:10006000A3010008A3010008A3010008A3010008E0
:10007000A3010008A3010008A3010008A3010008D0
:10008000A3010008A3010008A3010008A3010008C0
:10009000A3010008A3010008A3010008A3010008B0
:1000A000A3010008A3010008A3010008A3010008A0
:1000B000A3010008A3010008A3010008A301000890
:1000C000A3010008A3010008A3010008A301000880
:1000D000A3010008A301000895070008A301000878
:1000E000A3010008A3010008A301000800F002F822
:1000F00000F03AF80AA090E8000C82448344AAF188
:100100000107DA4501D100F02FF8AFF2090EBAE885
:100110000F0013F0010F18BFFB1A43F0010318473B
:100120009C0B0000BC0B0000103A24BF78C878C1BB
:10013000FAD8520724BF30C830C144BF04680C60ED
:10014000704700000023002400250026103A28BF35
:1001500078C1FBD8520728BF30C148BF0B60704739
:100160001FB51FBD10B510BD00F031F81146FFF7E7
:10017000F7FF00F02FFD00F04FF803B4FFF7F2FF98
:1001800003BC00F057F800000948804709480047C1
:10019000FEE7FEE7FEE7FEE7FEE7FEE7FEE7FEE737
:1001A000FEE7FEE704480549054A064B7047000094
:1001B000F5040008ED000008700000207006002023
:1001C000700200207002002070477047704775462B
:1001D00000F02CF8AE4605006946534620F00700B3
:1001E000854618B020B5FFF7DDFFBDE820404FF091
:1001F00000064FF000074FF000084FF0000BAC4630
:10020000ACE8C009ACE8C009ACE8C009ACE8C0097A
:1002100021F007018D46704710B50446AFF300800A
:100220002046BDE81040FFF7A8BF00000048704717
:100230000800002001491820ABBEFEE7260002009E
:10024000704700002DE9F041CA7802F00F0CD30688
:1002500044BF8B784CEA030C09880B0621D0056853
:1002600000234FF001084FF00F0E002608E000BFFA
:10027000282A08BF47610136082E03F104030FD076
:1002800008FA06F70F42F6D00EFA03F425EA040442
:100290000CFA03F5482A45EA0405E9D10761EAE7C3
:1002A0000560B1F5807F38BFBDE8F0814468002368
:1002B0004FF4807E4FF00F08002607E0282A08BF81
:1002C00047610136082E03F1040310D00EFA06F739
:1002D00007EA0105BD42F4D108FA03F5AC430CFA74
:1002E00003F5482A44EA0504E8D10761E9E74460D8
:1002F000BDE8F081416170470161704710B5C17878
:1003000000294EF20011CEF200011AD04EF60C5226
:10031000CEF200021268072323EA12220F23C2F151
:10032000040C23FA02F24378847890F800E003FA90
:100330000CF322401A43120101EB0E0383F8002351
:1003400000E080310078012300F01F0203FA02F27E
:10035000C0F3421041F8202010BD0000002941F2F6
:100360001C01C4F202010A680CBF22EA000010431B
:1003700008607047002941F21801C4F202010A68BE
:100380000CBF22EA000010430860704710B541F22C
:100390000404C4F20204226802F00C02082A41F2AA
:1003A0000022C0F27A021CD12368D4F800C0C3F343
:1003B000834E5FEACC330EF1020C06D440F60012F5
:1003C000C0F23D020CFB02F20BE023689B0302D457
:1003D0000CFB02F205E040F60012C0F23D020CFBFD
:1003E00002F20260226840F6AA43C2F30312C0F68A
:1003F00000039A5C0168D14041602268C2F3022286
:100400009A5C21FA02F282602268C2F3C2229A5CEC
:1004100040F6A643D140C1602268C0F60003C2F393
:1004200081329A5CB1FBF2F1016110BD80B500F040
:1004300001F880BD82B041F204000021C4F2020044
:100440000191009150F8041C41F4803140F8041CE3
:1004500050F8041C01F4003100910199013101911F
:10046000009919B90199B1F5A06FF1D150F8041CA8
:10047000890354BF0021012100910099012936D13F
:1004800042F20001C4F202010A6842F010020A605E
:100490000A6822F003020A600A6842F002020A6057
:1004A0000168016001680160016841F480610160D8
:1004B000016821F47C110160016841F4E8110160D8
:1004C00050F8041C41F0807140F8041C50F8041CE2
:1004D0008901FBD5016821F003010160016841F049
:1004E00002010160016801F00C010829FAD102B093
:1004F0007047000080B541F20000C4F202000168BC
:10050000002241F0010101604168CFF6FF02114075
:10051000416001684FF6FF72CFF6F662114001604C
:10052000016821F480210160416821F4FE014160ED
:100530004FF41F018160FFF779FF4EF60850CEF2AD
:1005400000004FF00061016080BD000010B584B074
:10055000044602200121FFF701FF4FF4E150ADF8FE
:10056000084040F2004401900020C4F20004ADF8BD
:100570000A008DF80C0001A9204600F0B5F82046CD
:10058000012100F011F820460121012200F022F89B
:1005900004B010BD0288002918BF012122F080029A
:1005A00042EAC111018070470288002918BF012169
:1005B00022F001021144018070470000B0F844208D
:1005C000002918BF01216FF3DF3242EAC131A0F8E0
:1005D00044107047002A82890CBF22EA01011143AE
:1005E00081817047B0B5028C22F001020284038C35
:1005F0008288B0F818C00C8923F002032343A0F1CD
:1006000080444D88A4F59634B1F800E04FEAB42454
:10061000072C43EA050313D8012505FA04F414F066
:10062000E50F0DD04C8923F00C0324F004048D88D1
:1006300023438C892B4322F44072CD8922432A43E1
:100640002CF0730545EA0E0582800583C9888186F2
:100650000384B0BD028B22F008021143018370476E
:10066000B0B5028C43F2004422F010020284028CE6
:100670008588B0F818C00B8922F0200242EA0312E4
:100680004B88C4F20104B1F800E0A04242EA031230
:1006900005D042F60043C4F20103984212D14B89BF
:1006A0006FF0400422F0C00204EA03138C881A435E
:1006B00042EA04128C8925F44063CD8943EA84031D
:1006C00043EA85052CF4E64343EA0E238580038341
:1006D000C98801870284B0BD028B22F4006242EA1D
:1006E000012101837047000040F6FF33B0F800C0DD
:1006F000C4F2000398420FDCB0F1804F1ED040F2EC
:100700000043C4F20003984218D040F60003C4F23C
:100710000003984212D016E040F60043C4F20003F2
:1007200098420BD043F20043C4F20103984205D033
:1007300042F60043C4F20103984204D14B882CF0E6
:10074000700243EA020C41F2004240F48063C4F2BA
:100750000002934204D0CA882CF4407342EA030C8E
:10076000A0F800C08A888285A0F18042A2F5963266
:100770000B884FEAB222072A038507D8012303FA20
:1007800002F212F0E50F1CBF097A01860121818275
:1007900070470000F0B581B044F20044C4F2000498
:1007A000204640F2266100F0EFF840F26C05C2F2FC
:1007B0000005297831B928B12046202100F074F9CC
:1007C00001202870204640F2255100F0DDF8002875
:1007D0007DD0204600F064F940F2680740F2000541
:1007E000C2F200073028C2F20005388005D12888FF
:1007F00000F0D0F9288800F037FA388840F2020675
:100800003128C2F2000605D1288800F0C3F93088EB
:1008100000F02AFA3888322805D1288800F09AF9A1
:10082000288800F001FA3888362805D1308800F091
:10083000B1F9288800F018FA388833280ED104F569
:1008400048404021FFF758FD04F544400121FFF7DF
:1008500051FD4FF4967028809620308038883428D7
:100860000ED104F544400121FFF746FD04F5484050
:100870004021FFF73FFD4FF4FA702880FA203080C6
:10088000388835280FD104F548404021FFF734FD62
:1008900004F544400121FFF72FFD4FF42F7028800D
:1008A0004FF4AF703080002442F210750A2600BF6A
:1008B00042F21070FFF74AFE013EF9D10134AC421A
:1008C000F4D1012000F066F9012000F0CDF901B06B
:1008D000F0BD000070B586B005200121FFF74AFD8C
:1008E00044F200440420C4F20004C1F6030004F5FD
:1008F000444505AE059028463146FFF7A3FC082085
:10090000ADF8140004208DF8170028463146FFF793
:1009100099FC4FF400300121FFF720FD4FF41650F1
:10092000019000204FF4402102900391ADF8100097
:1009300001A9204600F058F82046012100F01AF8DD
:10094000204640F22661012200F036F826266D4648
:10095000C0F2001628460096FFF7D0FC204640F271
:100960002551012200F028F828460096FFF7C6FC22
:1009700006B070BD8289002918BF012122F40052FF
:1009800042EA413181817047C1F34212022A06D006
:10099000012A14BF00F1140200F10C0201E000F181
:1009A00010021288008801F01F03090ADA40C840CB
:1009B000104000F001007047C1F3421301F01F0C1A
:1009C0001421022B08BF1021012B4FF0010308BF97
:1009D0000C21002A03FA0CF243580CBF23EA02024E
:1009E0001A4342507047000070B586B00446008A32
:1009F0000D46C98820F4405008432082A0894EF655
:100A0000F3110840A9882A896B89084310431843C9
:100A1000A081A08AA98920F44070084301AEA08279
:100A20003046FFF7B3FC43F6000106F10800C4F2BC
:100A300001018C4208BF06F10C0000681922B4F9CC
:100A40000C1050432A680123B1F1FF3FC8BF0223B5
:100A500002FA03F1B0FBF1F048F21F51C5F2EB11BD
:100A6000A0FB01235A096FF0630302FB0300B4F9F2
:100A70000C300326B3F1FF3FC8BF042600FA06F08E
:100A800000F13200A0FB01014FF00700C8BF0F20AA
:100A900000EA511040EA0210208106B070BD00004B
:100AA00080886FF35F2070476FF35F21818070470C
:100AB00070B584B00C200121FFF75CFC01200121FE
:100AC000FFF758FC42F6004440F20010C4F2010463
:100AD000C1F60200A4F5105503AE03902846314636
:100AE000FFF7B0FB40F20020C1F602000390284659
:100AF0003146FFF7A7FB42F20000C1F60200A4F561
:100B00000055039028463146FFF79CFB44F2000055
:100B1000C1F60200039028463146FFF793FB4FF4DD
:100B200000600121FFF726FC4720009040F2E730EB
:100B3000019000208DF8080069462046FFF7D4FD9B
:100B400020460121FFF730FD20460121FFF722FD5D
:100B500004B070BD10B584B00138ADF806000420B3
:100B600042F600446021ADF804000020C4F2010404
:100B70000091ADF80A0069462046FFF733FD204694
:100B80000821FFF767FD20460121FFF717FD04B09C
:100B900010BD000010B584B06021013842F6004459
:100BA000C0F20101ADF806000020C4F2010400917A
:100BB000ADF80400ADF8080069462046FFF712FDC5
:100BC00020460821FFF746FD20460121FFF7F6FCED
:100BD00004B010BD82B0FFF76BFF42F21070FFF758
:100BE000B5FC04200121FFF7C5FB012040F60004FD
:100BF000C1F20300C4F2010401AD01902046294670
:100C0000FFF720FB08200121FFF7B4FB4020C1F2D1
:100C10000300019004F580602946FFF713FBFFF7FE
:100C200059FE00BFFEE7000010B584B06021013816
:100C300042F60044C0F20101ADF806000020C4F203
:100C400001040091ADF80400ADF8080069462046A3
:100C5000FFF706FD20460821FFF73EFD2046012153
:100C6000FFF7ACFC04B010BD10B584B00138ADF88E
:100C70000600042042F600446021ADF80400002084
:100C8000C4F201040091ADF80A0069462046FFF75E
:100C9000E7FC20460821FFF71FFD20460121FFF752
:100CA0008DFC04B010BD0204060800000000010223
:100CB000030401020304060708090000DC0C000815
:100CC000000000200400000028010008E00C0008DB
:100CD000080000206806000044010008010001002F
:040000050800018965
:00000001FF
