:020000040800F2
:10000000880600208901000891010008930100087A
:100010009501000897010008990100080000000000
:100020000000000000000000000000009B0100082C
:100030009D010008000000009F0100080113000856
:10004000A3010008A3010008A3010008A301000800
:10005000A3010008A3010008A3010008A3010008F0
:10006000A3010008A3010008A3010008A3010008E0
:10007000A3010008A3010008A3010008A3010008D0
:10008000A3010008A3010008A3010008A3010008C0
:10009000A3010008A3010008A3010008A3010008B0
:1000A000A3010008A3010008A3010008A3010008A0
:1000B000A3010008A3010008A3010008A301000890
:1000C000A3010008A3010008A301000835060008E9
:1000D000A3010008A3010008A3010008A301000870
:1000E000A3010008A3010008A301000800F002F822
:1000F00000F03AF80AA090E8000C82448344AAF188
:100100000107DA4501D100F02FF8AFF2090EBAE885
:100110000F0013F0010F18BFFB1A43F0010318473B
:100120004C1E00006C1E0000103A24BF78C878C135
:10013000FAD8520724BF30C830C144BF04680C60ED
:10014000704700000023002400250026103A28BF35
:1001500078C1FBD8520728BF30C148BF0B60704739
:100160001FB51FBD10B510BD00F031F81146FFF7E7
:10017000F7FF01F045FD00F04FF803B4FFF7F2FF81
:1001800003BC00F057F800000948804709480047C1
:10019000FEE7FEE7FEE7FEE7FEE7FEE7FEE7FEE737
:1001A000FEE7FEE704480549054A064B7047000094
:1001B00045140008ED000008880000208806002093
:1001C00088020020880200207047704770477546FB
:1001D00000F02CF8AE4605006946534620F00700B3
:1001E000854618B020B5FFF7DDFFBDE820404FF091
:1001F00000064FF000074FF000084FF0000BAC4630
:10020000ACE8C009ACE8C009ACE8C009ACE8C0097A
:1002100021F007018D46704710B50446AFF300800A
:100220002046BDE81040FFF7A8BF00000048704717
:100230000800002001491820ABBEFEE7260002009E
:100240007047000081B00090009840F27401C2F243
:1002500000010860FFE740F27400C2F2000000688D
:1002600008B1FFE7F7E701B07047000088B00790DA
:100270000691002005900490039002900190009058
:100280000698C07800F00F0005900698C078C00668
:10029000002806D5FFE70698817805980843059061
:1002A000FFE70698007800284BD0FFE70798006822
:1002B000019000200390FFE7039807283DD8FFE74F
:1002C000039901208840029006980088029908400E
:1002D00004900498029988422AD1FFE7039880008D
:1002E000029002990F20884000900099019888435D
:1002F00001900598029900FA01F1019808430190D4
:100300000698C078282806D1FFE703990120884085
:10031000079948610BE00698C078482806D1FFE7A6
:1003200003990120884007990861FFE7FFE7FFE78D
:10033000FFE7039801300390BEE701980799086032
:10034000FFE706980088B0F5807F50DBFFE707984D
:100350004068019000200390FFE70398072842D8E7
:10036000FFE7039800F108010120884002900698F9
:1003700000880299084004900498029988422DD17F
:10038000FFE703988000029002990F2088400090B8
:1003900000990198884301900598029900FA01F1AB
:1003A0000198084301900698C078282808D1FFE7F3
:1003B000039800F108010120884007994861FFE790
:1003C0000698C078482808D1FFE7039800F1080193
:1003D0000120884007990861FFE7FFE7FFE70398DE
:1003E00001300390B9E7019807994860FFE708B02A
:1003F0007047000082B00190ADF8021000208DF827
:1004000001000198C068BDF80210084204D0FFE75F
:1004100001208DF8010003E000208DF80100FFE7C6
:100420009DF8010002B0704782B00190ADF8021053
:10043000BDF802000199486102B0704782B0019096
:10044000ADF80210BDF802000199086102B07047D2
:1004500082B001908DF803109DF8030048B1FFE7CA
:10046000019A41F21C01C4F20201086810430860BD
:1004700008E0019A41F21C01C4F2020108689043AD
:100480000860FFE702B0704782B001908DF803105A
:100490009DF8030048B1FFE7019A41F21801C4F248
:1004A000020108681043086008E0019A41F218014F
:1004B000C4F20201086890430860FFE702B0704789
:1004C00086B005900020049003900290019041F2C4
:1004D0000400C4F20200006800F00C0004900498CC
:1004E000009040B1FFE7009804280BD0FFE7009888
:1004F00008280ED047E0059941F20020C0F27A00AA
:10050000086047E0059941F20020C0F27A000860D7
:1005100040E041F20400C4F20200016801F47011ED
:100520000391006800F4803002900399022000EBF0
:1005300091400390029848B9FFE7039840F60011F4
:10054000C0F23D014843059908601BE041F20400F8
:10055000C4F2020000688003002809D5FFE7039871
:1005600040F60011C0F23D0148430599086008E0DB
:10057000039841F20021C0F27A01484305990860CE
:10058000FFE7FFE706E0059941F20020C0F27A009C
:100590000860FFE741F20400C4F20200016801F0C4
:1005A000F0010491049909090491049A41F65C71DF
:1005B000C0F600018A5C0192059B1A68DDF804C050
:1005C00022FA0CF25A60026802F4E0620492049A81
:1005D000120A0492049A8A5C0192059B5A68DDF81B
:1005E00004C022FA0CF29A60026802F4605204928B
:1005F000049AD20A0492049A895C0191059A51687E
:10060000019BD940D160006800F4404004900498F8
:10061000800B0490049941F64870C0F60000405CDD
:1006200001900599C868019AB0FBF2F0086106B024
:100630007047000080B543F20000C4F2010000F0F2
:100640005BFD40F26C01C2F20001087040F6000050
:10065000C4F201008021FFF7CDFE012810D1FFE791
:1006600040F60000C4F201008021FFF7DDFE43F2F6
:100670000000C4F20100002100F044FD00F0FABCCB
:1006800040F26C00C2F200000078C007F0B1FFE752
:1006900040F26C00C2F2000000780006002815D578
:1006A000FFE740F28000C2F20000006870B9FFE787
:1006B00040F28001C2F200010120086040F27001A6
:1006C000C2F20001086801300860FFE740F27000E4
:1006D000C2F2000000680C280ED1FFE740F268016A
:1006E000C2F200011120086040F27001C2F2000164
:1006F0000868013008601EE340F27000C2F200009A
:10070000006805280ED1FFE740F26801C2F200013F
:100710000A20086040F27001C2F20001086801304E
:10072000086007E340F26C00C2F200000078C007E6
:1007300000283FD1FFE740F26C00C2F200000078D1
:100740008007002836D4FFE740F26C00C2F20000B8
:100750000078400700282DD4FFE740F26C00C2F279
:10076000000000780007002824D4FFE740F26C0066
:10077000C2F200000078C00600281BD4FFE740F258
:100780006C00C2F2000000788006002812D4FFE757
:1007900040F26C00C2F2000000784006002809D444
:1007A000FFE740F26C00C2F200000078000600286B
:1007B00048D5FFE740F26C00C2F200000078C007A5
:1007C000002846D1FFE740F26C00C2F2000000783A
:1007D000800700283DD4FFE740F26C00C2F2000021
:1007E00000784007002834D4FFE740F26C00C2F2E2
:1007F00000000078000700282BD4FFE740F26C00CF
:10080000C2F200000078C006002822D4FFE740F2C0
:100810006C00C2F2000000788006002819D4FFE7BF
:1008200040F26C00C2F2000000784006002810D4AC
:10083000FFE740F26C00C2F20000007800060028DA
:1008400007D5FFE740F26801C2F2000112200860FC
:100850006FE240F26C00C2F200000078000600284F
:1008600008D5FFE740F26C00C2F200000078C00734
:1008700038B9FFE740F28001C2F2000100200860B1
:10088000FFE740F27000C2F2000000680D2819D0A6
:10089000FFE740F27000C2F2000000680E2811D09D
:1008A000FFE740F27000C2F2000000680F2809D094
:1008B000FFE740F27000C2F200000068102840F02C
:1008C0008380FFE7012038B9FFE740F26801C2F2F8
:1008D00000011020086076E040F26C00C2F20000D7
:1008E00000788007002807D5FFE740F26801C2F2D0
:1008F00000011020086065E040F26C00C2F20000C8
:1009000000780006002807D5FFE740F26801C2F230
:1009100000010F20086054E040F26C00C2F20000B9
:1009200000784006002807D5FFE740F26801C2F2D0
:1009300000010F20086043E040F26C00C2F20000AA
:1009400000788006002807D5FFE740F26801C2F270
:1009500000010D20086032E040F26C00C2F200009D
:1009600000784007002807D5FFE740F26801C2F28F
:1009700000010E20086021E040F26C00C2F200008D
:100980000078C006002807D5FFE740F26801C2F2F0
:1009900000010D20086010E040F26C00C2F200007F
:1009A00000780007002807D5FFE740F26801C2F28F
:1009B00000010E200860FFE7FFE7FFE7FFE7FFE722
:1009C000FFE7FFE7FFE7B3E140F27000C2F200008B
:1009D0000068062840F08880FFE740F26C00C2F211
:1009E000000000780006002807D5FFE740F2680104
:1009F000C2F200010F20086075E0012038B9FFE75E
:100A000040F27001C2F20001072008606AE040F283
:100A10006C00C2F2000000784006002807D5FFE70E
:100A200040F26801C2F200010F20086059E040F274
:100A30006C00C2F2000000788007002807D5FFE7AD
:100A400040F26801C2F200011020086048E040F264
:100A50006C00C2F2000000788006002807D5FFE78E
:100A600040F26801C2F200010D20086037E040F258
:100A70006C00C2F2000000784007002807D5FFE7AD
:100A800040F26801C2F200010E20086026E040F248
:100A90006C00C2F2000000780007002807D5FFE7CD
:100AA00040F26801C2F200010E20086015E040F239
:100AB0006C00C2F200000078C006002807D5FFE7EE
:100AC00040F26801C2F200010D20086004E000203D
:100AD000282101F011FAFFE7FFE7FFE7FFE7FFE753
:100AE000FFE7FFE7FFE722E140F27000C2F20000FB
:100AF0000068022818D0FFE740F27000C2F2000040
:100B00000068042810D0FFE740F27000C2F2000035
:100B10000068092808D0FFE740F27000C2F2000028
:100B200000680B287BD1FFE740F26C00C2F20000A6
:100B30000078C00728B1FFE73220232101F0DCF95B
:100B40006CE040F26C00C2F20000007880070028E0
:100B500005D5FFE74620282101F0CEF95DE040F2FF
:100B60006C00C2F2000000784007002805D5FFE7BE
:100B70003C20202101F0C0F94EE040F26C00C2F2AE
:100B8000000000780007002805D5FFE73C2024215D
:100B900001F0B2F93FE040F26C00C2F200000078D0
:100BA000C006002805D5FFE72820462101F0A4F95A
:100BB00030E040F26C00C2F20000007880060028AD
:100BC00005D5FFE72320412101F096F921E040F20D
:100BD0006C00C2F2000000784006002807D5FFE74D
:100BE00040F26801C2F200010820086010E040F203
:100BF0006C00C2F2000000780006002807D5FFE76D
:100C000040F26801C2F2000108200860FFE7FFE738
:100C1000FFE7FFE7FFE7FFE7FFE7FFE786E040F2D8
:100C20006C00C2F2000000788006002807D5FFE7BC
:100C300040F26801C2F200010420086075E040F251
:100C40006C00C2F2000000784006002807D5FFE7DC
:100C500040F26801C2F200010620086064E040F240
:100C60006C00C2F2000000780007002807D5FFE7FB
:100C700040F26801C2F200010520086053E040F232
:100C80006C00C2F2000000780006002807D5FFE7DC
:100C900040F26801C2F200010620086042E040F222
:100CA0006C00C2F200000078C006002807D5FFE7FC
:100CB00040F26801C2F200010420086031E040F215
:100CC0006C00C2F2000000784007002807D5FFE75B
:100CD00040F26801C2F200010520086020E040F205
:100CE0006C00C2F2000000788007002807D5FFE7FB
:100CF00040F26801C2F20001072008600FE040F2F4
:100D00006C00C2F200000078C00738B1FFE740F283
:100D10006801C2F2000107200860FFE7FFE7FFE774
:100D2000FFE7FFE7FFE7FFE7FFE7FFE7FFE7FFE793
:100D3000FFE7FFE7FFE740F26C00C2F20000007837
:100D4000C00798B1FFE7FFE744F20040C4F200009B
:100D5000402100F023FE08B9FFE7F5E744F2004028
:100D6000C4F20000302100F0E9FE12E0FFE744F297
:100D70000040C4F20000402100F010FE08B9FFE777
:100D8000F5E744F20040C4F20000312100F0D6FE45
:100D9000FFE740F26C00C2F20000007880070028F4
:100DA00013D5FFE7FFE744F20040C4F20000402102
:100DB00000F0F4FD08B9FFE7F5E744F20040C4F2A3
:100DC0000000302100F0BAFE12E0FFE744F20040DC
:100DD000C4F20000402100F0E1FD08B9FFE7F5E7AB
:100DE00044F20040C4F20000312100F0A7FEFFE70A
:100DF00040F26C00C2F2000000784007002813D5D2
:100E0000FFE7FFE744F20040C4F20000402100F099
:100E1000C5FD08B9FFE7F5E744F20040C4F2000061
:100E2000302100F08BFE12E0FFE744F20040C4F2F4
:100E30000000402100F0B2FD08B9FFE7F5E744F2F9
:100E40000040C4F20000312100F078FEFFE740F2DC
:100E50006C00C2F2000000780007002813D5FFE7FD
:100E6000FFE744F20040C4F20000402100F096FD8C
:100E700008B9FFE7F5E744F20040C4F20000302172
:100E800000F05CFE12E0FFE744F20040C4F2000014
:100E9000402100F083FD08B9FFE7F5E744F2004088
:100EA000C4F20000312100F049FEFFE740F26C007F
:100EB000C2F200000078C006002813D5FFE7FFE764
:100EC00044F20040C4F20000402100F067FD08B980
:100ED000FFE7F5E744F20040C4F20000302100F0E3
:100EE0002DFE12E0FFE744F20040C4F20000402172
:100EF00000F054FD08B9FFE7F5E744F20040C4F202
:100F00000000312100F01AFEFFE740F26C00C2F24F
:100F1000000000788006002813D5FFE7FFE744F2C1
:100F20000040C4F20000402100F038FD08B9FFE79E
:100F3000F5E744F20040C4F20000302100F0FEFD6D
:100F400012E0FFE744F20040C4F20000402100F04C
:100F500025FD08B9FFE7F5E744F20040C4F20000C0
:100F6000312100F0EBFDFFE740F26C00C2F200001F
:100F700000784006002813D5FFE7FFE744F2004061
:100F8000C4F20000402100F009FD08B9FFE7F5E7D1
:100F900044F20040C4F20000302100F0CFFD12E026
:100FA000FFE744F20040C4F20000402100F0F6FCEC
:100FB00008B9FFE7F5E744F20040C4F20000312130
:100FC00000F0BCFDFFE740F26C00C2F200000078C8
:100FD0000006002813D5FFE7FFE744F20040C4F203
:100FE0000000402100F0DAFC08B9FFE7F5E744F221
:100FF0000040C4F20000302100F0A0FD12E0FFE745
:1010000044F20040C4F20000402100F0C7FC08B9DF
:10101000FFE7F5E744F20040C4F20000312100F0A0
:101020008DFDFFE7FFE744F20040C4F200004021DD
:1010300000F0B4FC08B9FFE7F5E744F20040C4F261
:1010400000000D2100F07AFDFFE744F20040C4F2F9
:101050000000402100F0A2FC08B9FFE7F5E744F2E8
:101060000040C4F200000A2100F068FD232000F0D7
:1010700071FDFFE780BD000082B001908DF8031084
:101080009DF8030030B1FFE70199088840F0400067
:10109000088005E00199088820F040000880FFE7FB
:1010A00002B0704783B002908DF807108DF80620CB
:1010B0000020ADF80400ADF802009DF8070000091B
:1010C000ADF80400BDF8041001208840ADF802001E
:1010D0009DF8060038B1FFE7BDF802200299888824
:1010E0001043888006E0BDF802200299888890436A
:1010F0008880FFE703B0704781B000900098808936
:1011000001B0704782B00190ADF80210BDF8020046
:101110000199888102B0704783B00290019100204C
:10112000ADF8020002980088ADF80200BDF8020098
:1011300000F44150ADF80200019908884A88104334
:101140008A881043CA8810430A8910434A89104389
:101150008A891043C9890143BDF802000843ADF8EC
:101160000200BDF80200029908800299888B20F4E1
:10117000006088830198008A0299088203B0704752
:1011800080B500F001F880BD84B00020039002908B
:1011900041F20001C4F20201086840F480300860A6
:1011A000FFE741F20000C4F20200006800F40030E2
:1011B0000290039801300390FFE70299002001900C
:1011C00039B9FFE70398B0F5A06018BF012001907E
:1011D000FFE70198C0070028E3D1FFE741F20000D4
:1011E000C4F2020000688003002803D5FFE7012055
:1011F000029002E000200290FFE70298012851D1FE
:10120000FFE742F20001C4F20201086840F010005A
:101210000860086820F007000860086840F00200D5
:10122000086041F20401C4F20201009108680860FC
:1012300008680860086840F480600860086820F466
:101240007C100860086840F4E810086041F2000172
:10125000C4F20201086840F080700860FFE741F2C4
:101260000000C4F2020000688001002801D4FFE7FA
:10127000F5E741F20401C4F20201086820F003001E
:101280000860086840F002000860FFE741F20400CF
:10129000C4F20200006800F00C00082801D0FFE74B
:1012A000F4E700E0FFE704B07047000080B582B0CB
:1012B000009000980138B0F1807F03D3FFE7012050
:1012C000019019E0009801384EF21401CEF20001AD
:1012D00008604FF0FF300F2100F070FC4EF2180153
:1012E000CEF20001002008604EF21002CEF20002A1
:1012F000072111600190FFE7019802B080BD000056
:1013000040F27400C2F20000006840B1FFE740F212
:101310007401C2F20001086801380860FFE77047F5
:1013200084B0002003900290019041F20400C4F2C6
:101330000200006800F00C0003900398009040B198
:10134000FFE7009804280ED0FFE70098082814D083
:1013500056E040F20001C2F2000141F20020C0F26A
:101360007A00086056E040F20001C2F2000141F24A
:101370000020C0F27A0008604CE041F20400C4F2A0
:101380000200016801F470110291006800F48030DD
:1013900001900299022000EB91400290019860B9FF
:1013A000FFE7029840F60011C0F23D01484340F2C9
:1013B0000001C2F20001086021E041F20400C4F221
:1013C00002000068800300280CD5FFE7029840F671
:1013D0000011C0F23D01484340F20001C2F2000199
:1013E00008600BE0029841F20021C0F27A01484304
:1013F00040F20001C2F200010860FFE7FFE709E0E8
:1014000040F20001C2F2000141F20020C0F27A0075
:101410000860FFE741F20400C4F202000068C0B2B5
:10142000010941F64C70C0F60000405C0390039A3D
:1014300040F20001C2F200010868D040086004B028
:101440007047000080B541F20002C4F20202106849
:1014500040F00100106041F20401C4F2020108688A
:101460000023CFF6FF031840086010684FF6FF73A3
:10147000CFF6F66318401060106820F480201060EA
:10148000086820F4FE00086041F20801C4F202017D
:101490004FF41F000860FFF773FE4EF60851CEF2BE
:1014A00000014FF00060086080BD000082B0019034
:1014B0008DF803109DF8030030B1FFE7019908880B
:1014C00040F00100088005E00199088820F0010043
:1014D0000880FFE702B0704782B001908DF80310DA
:1014E0009DF8030040B1FFE70199B1F8440040F4D2
:1014F0000040A1F8440007E00199B1F844006FF3FF
:10150000DF30A1F84400FFE702B0704784B00390D9
:1015100002910020ADF80600ADF80400ADF802001D
:101520000399088C20F0010008840398008CADF822
:10153000040003988088ADF802000398008BADF892
:101540000600BDF8060020F07000ADF80600BDF8FA
:10155000060020F00300ADF8060002980188BDF8EF
:1015600006000843ADF80600BDF8040020F00200B4
:10157000ADF8040002980189BDF804000843ADF8F5
:10158000040002984188BDF804000843ADF8040047
:10159000039842F60041C4F20101884220D0FFE7DF
:1015A000039843F20041C4F20101884218D0FFE7DA
:1015B000039844F20001C4F20101884210D0FFE711
:1015C000039844F20041C4F20101884208D0FFE7C9
:1015D000039844F60001C4F20101884235D1FFE7C7
:1015E000BDF8040020F00800ADF80400029841891D
:1015F000BDF804000843ADF80400BDF8040020F075
:101600000400ADF8040002988188BDF80400084386
:10161000ADF80400BDF8020020F48070ADF80200BF
:10162000BDF8020020F40070ADF802000298818934
:10163000BDF802000843ADF802000298C189BDF868
:1016400002000843ADF80200FFE7BDF8020003996D
:101650008880BDF80600039908830298C088039922
:101660008886BDF804000399088404B07047000020
:1016700082B00190ADF802100020ADF80000019892
:10168000008BADF80000BDF8000020F00800ADF8B8
:101690000000BDF80210BDF800000843ADF80000DE
:1016A000BDF800000199088302B0704784B0039030
:1016B00002910020ADF80600ADF80400ADF802007C
:1016C0000399088C20F0100008840398008CADF872
:1016D000040003988088ADF802000398008BADF8F1
:1016E0000600BDF8060020F4E040ADF80600BDF8A5
:1016F000060020F44070ADF8060002980188BDF89D
:10170000060040EA0120ADF80600BDF8040020F014
:101710002000ADF8040002980189BDF8040040EAF9
:101720000110ADF8040002984188BDF8040040EAB9
:101730000110ADF80400039842F60041C4F2010123
:10174000884208D0FFE7039843F20041C4F2010148
:10175000884239D1FFE7BDF8040020F08000ADF8E1
:10176000040002984189BDF8040040EA0110ADF878
:101770000400BDF8040020F04000ADF80400029819
:101780008188BDF8040040EA0110ADF80400BDF8FE
:10179000020020F48060ADF80200BDF8020020F4E1
:1017A0000060ADF8020002988189BDF8020040EAAD
:1017B0008100ADF802000298C189BDF8020040EA3C
:1017C0008100ADF80200FFE7BDF8020003998880B0
:1017D000BDF80600039908830298C088039908871A
:1017E000BDF804000399088404B0704782B00190EA
:1017F000ADF802100020ADF800000198008BADF8A4
:101800000000BDF8000020F40060ADF80000BDF855
:101810000210BDF8000040EA0120ADF80000BDF85C
:1018200000000199088302B07047000083B0029065
:1018300001910020ADF8020002980088ADF8020086
:10184000029842F60041C4F20101884225D0FFE728
:10185000029843F20041C4F2010188421DD0FFE723
:101860000298B0F1804F18D0FFE7029840F2004193
:10187000C4F20001884210D0FFE7029840F6000150
:10188000C4F20001884208D0FFE7029840F6004108
:10189000C4F2000188420ED1FFE7BDF8020020F03B
:1018A0007000ADF8020001984188BDF802000843BD
:1018B000ADF80200FFE7029841F20001C4F2000116
:1018C000884216D0FFE7029841F20041C4F20001BD
:1018D00088420ED0FFE7BDF8020020F44070ADF85A
:1018E00002000198C188BDF802000843ADF802006B
:1018F000FFE7BDF8020002990880019880880299EC
:1019000088850198008802990885029842F600416E
:10191000C4F20101884220D0FFE7029843F200415F
:10192000C4F20101884218D0FFE7029844F2000196
:10193000C4F20101884210D0FFE7029844F200414E
:10194000C4F20101884208D0FFE7029844F6000182
:10195000C4F20101884205D1FFE70198007A02999B
:101960000886FFE702990120888203B070470000D3
:1019700082B001908DF803109DF8030030B1FFE7AD
:101980000199888940F40050888105E0019988898F
:1019900020F400508881FFE702B0704782B00190C8
:1019A000ADF8021000208DF80100BDF80200B0F57E
:1019B000007F01D1FFE7FFE701980088BDF8021022
:1019C0000840000420B1FFE701208DF8010003E08A
:1019D00000208DF80100FFE79DF8010002B070477C
:1019E00080B58CB00B900A91002009900890079068
:1019F000069005900A98808908B1FFE7FFE70B98E9
:101A000005900B98008A099009984CF6FF710840E0
:101A100009900A98C18809980843099009980B9978
:101A200008820B988089099009984EF6F3110840B6
:101A300009900A9988880A891043498901430998BD
:101A40000843099009980B9988810B98808A09901E
:101A500009984FF6FF41084009900A988189099832
:101A60000843099009980B9988826846FEF728FD7B
:101A7000059843F60001C4F20101884203D1FFE753
:101A80000398089002E002980890FFE70B9880897D
:101A9000000400280AD5FFE70898192148430A994D
:101AA00009684900B0FBF1F0079009E00898192196
:101AB00048430A9909688900B0FBF1F00790FFE7F5
:101AC000079848F21F51C5F2EB11A0FB01016FF01E
:101AD0000F0000EA51000990079A09980009642153
:101AE00000FB112006900B9880890004002810D577
:101AF000FFE70699322000EBC10048F21F51C5F202
:101B0000EB11A0FB0110C0F34211099808430990A2
:101B10000FE00699322000EB011048F21F51C5F288
:101B2000EB11A0FB0110C0F3431109980843099081
:101B3000FFE709980B9908810CB080BD82B0019035
:101B4000ADF80210BDF802006FF35F2001998880A4
:101B500002B0704781B08DF803009DF903000028A2
:101B600012D4FFE79DF9031001F01F0201209040FD
:101B70004A094EF28011CEF2000141F82200BFF373
:101B80004F8FBFF36F8FFFE701B0704781B08DF8C3
:101B900003009DF9030000280ED4FFE79DF9031010
:101BA00001F01F02012090404A094EF20011CEF2CE
:101BB000000141F82200FFE701B0704782B08DF8C4
:101BC000070000919DF9070000280AD4FFE700985C
:101BD00000019DF907104EF20042CEF20002885437
:101BE0000BE0009800019DF8071001F00F014EF680
:101BF0001452CEF200028854FFE702B07047000092
:101C000080B5ACB0002012902B90FFF789FB40F21A
:101C10000000C2F20000006844F6D351C1F2620134
:101C2000A0FB01108009FFF741FB04200790012170
:101C30001591FEF729FC2020ADF8A80002200D9098
:101C40008DF8AA0018200C908DF8AB0040F600002B
:101C5000C4F201000B902AA91091FEF707FB0B9824
:101C60000D9A10999023ADF8A8308DF8AA20102273
:101C70000E928DF8AB20FEF7F9FA15994FF48050CB
:101C8000FEF702FC0D9A12981599ADF894004FF4E6
:101C90008273ADF89630ADF89800ADF89A20ADF8A3
:101CA0009C104FF40071ADF89E103821ADF8A010D3
:101CB000ADF8A20043F20000C4F20100059025A98E
:101CC000FFF72AFA0598159A6021FFF7EBF90598B6
:101CD0001599FFF7D1F915994FF48020FEF7B8FB5D
:101CE000159908201390FEF7CFFB0C9810994FF42C
:101CF0008062ADF8A8208DF8AB00032006908DF827
:101D0000AA0040F60040C4F201000F90FEF7AEFAC0
:101D1000079A0F9810994FF400631193ADF8A8300B
:101D20008DF8AB20FEF7A2FA129913984FF41652D1
:101D30002192ADF88810ADF88A10ADF88C10ADF88E
:101D40009010ADF88E0044F60000C4F20000099037
:101D500021A90891FFF744FE15994FF40030FEF7D2
:101D600077FB07981599FEF78FFB069ADDF81CC0E4
:101D70000B980C9B1099ADF8A8C08DF8AB308DF87E
:101D8000AA20FEF773FA079A0B981099139BADF8E7
:101D9000A8308DF8AB20FEF769FA0899129A1398CB
:101DA0004FF4E1332193ADF88820ADF88A20ADF8E7
:101DB0008C20ADF89020ADF88E0044F20040C4F2C3
:101DC00000000A90FFF70CFE09981599FFF7D0FD67
:101DD0000A981599FFF7CCFD15990C20FEF754FBD6
:101DE0000B980C9A0D9B10994FF4407CADF8A8C04D
:101DF0008DF8AA308DF8AB20FEF738FA0C9A0D9BBF
:101E00000F9810994FF4C04CADF8A8C08DF8AA30C7
:101E10008DF8AB20FEF72AFA0D9B0E9A0F981099B9
:101E20004FF0400CADF8A8C08DF8AA308DF8AB206B
:101E3000FEF71CFA11981599FEF726FB129840F24E
:101E4000CF21ADF87810ADF87A00C721ADF87C103D
:101E5000ADF87E008DF8800042F60040C4F201002B
:101E600014901EA9FFF7E2FC14981599FFF71EFBCA
:101E700013991498FFF7FCFB13991498FFF7B6FC1D
:101E800014981599FFF728FBFFE700F047F80320A7
:101E9000FEF7D8F960200190ADF86800322002907A
:101EA000ADF86E000120ADF86A0000200390ADF897
:101EB0007000ADF86C000820ADF8720042F60040EA
:101EC000C4F2010004901AA9FFF720FB019B029ABB
:101ED00003990498ADF85830ADF85E20ADF85A106B
:101EE0000222ADF860200422ADF85C20ADF862104B
:101EF00016A9FFF7DBFBC8E782B0019000910198BB
:101F000040F27801C2F200010860009840F27C01C2
:101F1000C2F20001086002B07047000080B540F6D0
:101F20000000C4F201008021FEF788FA0120FEF7CC
:101F300089F943F20000C4F201000021FFF7E2F842
:101F40002320FFF723FE80BD0204060800000000E6
:101F50000000000001020304060708090000000059
:101F60000102030401020304060708098C1F00088C
:101F7000000000200400000028010008901F000855
:101F800008000020800600004401000800A24A0466
:040000050800018965
:00000001FF
